:100000000C94F3030C943A040C943A040C94E529F0
:100010000C943A040C943A040C943A040C943A0468
:100020000C943A040C943A040C9497320C946B336D
:100030000C94ED2C0C943A040C943A040C943A046D
:100040000C943A040C943A040C943A040C943A0438
:100050000C943A040C94602D0C943A040C943A04D9
:100060000C943A040C943A040C943A040C943A0418
:100070000C943A040C943A040C943A040C943A0408
:100080000C943A040C943A040C943A040C943A04F8
:100090000C943A040C943A040C943A040C943A04E8
:1000A0000C943A040C943A040C943A042900140079
:1000B0001A000800150017001C0020002100E000B5
:1000C00004001600070009000A0011001E001F00AE
:1000D000E1001D001B000600190005002C000000B7
:1000E0000000000000002C002C002C002C002C0034
:1000F00000000000000000002C002C002C002C0050
:100100002C00000000002A00130012000C00180050
:100110001C00170025002400280033000F000E00EB
:100120000D000B00050023002200340038003700CA
:100130003600100011002C0000000000000000003C
:100140002C002C002C002C002C00000000000000D3
:1001500000002C002C002C002C002C0000000000C3
:10016000000000000000000000000000000000008F
:10017000000000000000000000000000000000007F
:10018000000000000000000000000000000000006F
:10019000000000000000000000000000000000005F
:10038000000000002A2B28000000000000000000F0
:100390000000000000000029000000002C1E342096
:1003A000212224342627252E362D3738271E1F20BC
:1003B0002122232425263333362E37381F04050601
:1003C0000708090A0B0C0D0E0F1011121314151645
:1003D0001718191A1B1C1D2F3130232D3504050643
:1003E0000708090A0B0C0D0E0F1011121314151625
:1003F0001718191A1B1C1D2F3130354C0000000036
:1004000000000000000000000000000000000000EC
:1004100000000000000000000000000000000000DC
:100420007E0F00D4FFFFFFC7000000780004643295
:1004300014783C1E1E140A052223252628292A2C5E
:100440002D2F3032333536383A3B3D3E404243451E
:1004500047494A4C4E5051535557595A5C5E606259
:10046000646668696B6D6F71737577797B7D7F8169
:10047000838587898A8C8E90929496989A9C9E9F69
:10048000A1A3A5A7A8AAACAEAFB1B3B4B6B8B9BB87
:10049000BCBEBFC1C2C3C5C6C7C9CACBCCCDCED0F6
:1004A000D1D2D2D3D4D5D6D7D7D8D9D9DADADBDBE3
:1004B000DBDCDCDCDCDCDDDDDDDDDCDCDCDCDCDB7A
:1004C000DBDBDADAD9D9D8D7D7D6D5D4D3D2D2D1C3
:1004D000D0CECDCCCBCAC9C7C6C5C3C2C1BFBEBCB6
:1004E000BBB9B8B6B4B3B1AFAEACAAA8A7A5A3A127
:1004F0009F9E9C9A98969492908E8C8A89878583E9
:10050000817F7D7B79777573716F6D6B69686664C8
:1005100062605E5C5A5957555351504E4C4A494798
:10052000454342403E3D3B3A3836353332302F2D3D
:100530002C2A29282625232200010101010101017D
:100540000101020202020202020202030303030388
:100550000303030404040404040405050505050657
:100560000606060607070707070808080809090915
:10057000090A0A0A0B0B0B0C0C0C0D0D0D0E0E0EBE
:100580000F0F0F101011111112121313141415154F
:1005900016161717181819191A1A1B1B1C1D1D1EC1
:1005A0001E1F202021222223242425262627282915
:1005B000292A2B2C2D2D2E2F303132323334353643
:1005C0003738393A3B3C3D3E3F4041424344454643
:1005D0004748494A4C4D4E4F50515354555658591F
:1005E0005A5B5D5E5F616264656668696B6C6D6FC6
:1005F0007072737577787A7B7D7E80828385878839
:100600008A8C8E8F91939596989A9C9EA0A2A3A572
:10061000A7A9ABADAFB1B3B5B7BABCBEC0C2C4C673
:10062000C9CBCDCFD1D4D6D8DBDDDFE2E4E7E9EB2F
:10063000EEF0F3F5F8FAFDFF0E03720061007000B2
:10064000680072006100000012036D006F0063001B
:100650006F002D006B0062006400000004030904B9
:1006600009025B00030100A0FA0904000001030174
:100670000100092111010001224000070581030842
:10068000000A090401000203000000092111010011
:100690000122220007058203200001070503032031
:1006A00000010904020001030000000921110100FA
:1006B0000122B6000705840320000A12010002008F
:1006C000000008D804F0E80100010200010660FF04
:1006D0000961A1010962150026FF009520750881B6
:1006E000020963150026FF00952075089102C005D8
:1006F000010902A10185020901A1000509190129C9
:1007000008150025019508750181020501093009C8
:10071000311581257F9502750881060938158125D7
:100720007F950175088106050C0A38021581257F21
:10073000950175088106C0C005010980A1018503E6
:1007400019012AB700150126B7009501751081001F
:10075000C0050C0901A101850419012AA002150197
:1007600026A002950175108100C005010906A101AE
:100770008506050719E029E715002501950875018B
:1007800081020507190029EF1500250195F0750173
:100790008102050819012905950575019102950148
:1007A00075039101C005010906A101050719E0299A
:1007B000E7150025019508750181029501750881ED
:1007C000010507190029FF150026FF009506750889
:1007D000810005081901290595057501910295010A
:1007E00075039101C00011241FBECFEFDAE0DEBF18
:1007F000CDBF04B603FE27C08091680490916904C0
:10080000A0916A04B0916B048730904BA740B04B25
:10081000D1F4109268041092690410926A04109244
:100820006B0414BE84B7877F84BF0FB6F894A89575
:1008300080916000886180936000109260000FBE1C
:10084000E0E0F8E3099512E0A0E0B1E0E0E1FCE6C9
:1008500002C005900D92AE32B107D9F724E0AEE2A6
:10086000B2E001C01D92A836B207E1F70E94E51977
:100870000C94CF350C940000CF93DF9300D000D0C0
:100880000F92CDB7DEB76B837C838D838C819D8186
:10089000892B21F0CA0189238F3F51F480E08170B8
:1008A0000F900F900F900F900F90DF91CF910895C0
:1008B0008B81F5CF40912301509124016091250156
:1008C00070912601809127010E943C048823A1F0A9
:1008D000109225010E941D2D8160782F9093270191
:1008E00080932601409123015091240160912501BC
:1008F000809127010E94F60740911E0150911F012F
:100900006091200170912101809122010E943C049C
:100910008823A1F0109220010E941D2D8160782F64
:10092000909322018093210140911E0150911F015B
:1009300060912001809122010E94F60740911901E7
:1009400050911A0160911B0170911C0180911D0151
:100950000E943C048823A1F010921B010E941D2DCF
:100960008160782F90931D0180931C0140911901A3
:1009700050911A0160911B0180911D010E94F607A0
:100980004091140150911501609116017091170169
:10099000809118010E943C048823A1F01092160156
:1009A0000E941D2D8160782F90931801809317016C
:1009B0004091140150911501609116018091180128
:1009C0000E94F60740910F015091100160911101B2
:1009D00070911201809113010E943C048823A1F0C0
:1009E000109211010E941D2D8160782F90931301A8
:1009F0008093120140910F015091100160911101FB
:100A0000809113010E94F60740910A0150910B0159
:100A100060910C0170910D0180910E010E943C04C7
:100A20008823A1F010920C010E941D2D8160782F67
:100A300090930E0180930D0140910A0150910B019A
:100A400060910C0180910E010E94F6074091050112
:100A50005091060160910701709108018091090190
:100A60000E943C048823A1F0109207010E941D2DD2
:100A70008160782F909309018093080140910501CE
:100A80005091060160910701809109010E94F607CB
:100A900040910001509101016091020170910301A8
:100AA000809104010E943C048823A1F0109202016D
:100AB0000E941D2D8160782F909304018093030183
:100AC0004091000150910101609102018091040167
:100AD0000C94F607089581112CC081E06623B1F0D3
:100AE000809320010E941D2D8160782F9093220118
:100AF0008093210140911E0150911F0160912001BE
:100B0000809122010E94F60781E0089580932501DB
:100B10000E941D2D8160782F9093270180932601DC
:100B2000409123015091240160912501809127017A
:100B3000E9CF813041F5662399F0809316010E9438
:100B40001D2D8160782F909318018093170140919B
:100B50001401509115016091160180911801D2CFB6
:100B600080931B010E941D2D8160782F90931D01A1
:100B700080931C014091190150911A0160911B0151
:100B800080911D01BFCF823049F581E0662399F045
:100B900080930C010E941D2D8160782F90930E018F
:100BA00080930D0140910A0150910B0160910C015D
:100BB00080910E01A7CF809311010E941D2D8160AD
:100BC000782F909313018093120140910F0150915F
:100BD0001001609111018091130194CF833009F0CD
:100BE00093CF81E0662399F0809302010E941D2D2E
:100BF0008160782F9093040180930301409100015C
:100C00005091010160910201809104017BCF80939A
:100C100007010E941D2D8160782F90930901809318
:100C200008014091050150910601609107018091F2
:100C3000090168CF81E0089581E008950C941C06B5
:100C400008950C9420061F93CF93DF9300D000D01B
:100C50000F92CDB7DEB749835A836B833091300250
:100C600089819A8131111DC06623B9F02223A9F030
:100C70000E94A70C182F682F89819A810E94530C1B
:100C800069817A81812F0F900F900F900F900F90B4
:100C9000DF91CF911F910C940C260E947F0C182F8E
:100CA000EFCF0E94A70C69817A81EDCFFC01262F3E
:100CB000408151816281738184810C94230681E09B
:100CC0000895CF93DF93EC0160E00E945606BE01C9
:100CD000DF91CF910C942106E1E0F0E0DF0102C04A
:100CE000AA0FBB1F6A95E2F7BD01DF0102C0AA0F80
:100CF000BB1F4A95E2F76A2B01C0EE0F2A95EAF76F
:100D0000962F9823961302C08E2B0895E0958E237C
:100D10000895242F462F682F809155020E946C065B
:100D20000C94100C0E94C3140E94ED070C94DE1466
:100D30000C94E01480E00C94EE07089508950E944E
:100D4000A80B0E949E062FEF84E39CE02150804078
:100D50009040E1F700C000000C94842D0F931F9386
:100D6000CF93DF938C0161E00E945606EC01B8013D
:100D70000E94B122882309F441C0B801CE010E942B
:100D80001E068823D9F1B801CE010E94EB288823E2
:100D9000A9F1B801CE010E941A24882379F1B80183
:100DA000CE010E945528882349F1B801CE010E9446
:100DB0008821882319F1F8018281882361F0CA35DE
:100DC000FDE5DF0721F170F4C115ECE5DE07A1F0C8
:100DD000CE3DDC45C9F0C801DF91CF911F910F9145
:100DE0000C941A06CB358DE5D807A1F0CC35DD453E
:100DF00091F70E94BA10EFCF0E949F0680E0DF912A
:100E0000CF911F910F9108950E947311F7CF0E9407
:100E1000C310E1CF0E94C610DECF0C949D060E9445
:100E2000692B0E94EE070C940D07DF92EF92FF9260
:100E30000F931F93CF93DF93E82FF0E0E458FC4F1C
:100E4000D490282F26952695269530E0F901E45E6A
:100E5000FB4F0491877010E0082E02C0159507958E
:100E60000A94E2F701701127F901E45FFB4FE49067
:100E7000F12C082E02C0F594E7940A94E2F791E071
:100E8000E922FF24F901E450FC4FC491D0E002C0F4
:100E9000D595C7958A95E2F7C170DD270115110533
:100EA00019F081EE0E943908E114F10419F086EE80
:100EB0000E9439088D2D0E943809EF2819F086EE1E
:100EC0000E94CB08012B19F081EE0E94CB08CD2B9C
:100ED00051F08CE2DF91CF911F910F91FF90EF9035
:100EE000DF900C943809DF91CF911F910F91FF9003
:100EF000EF90DF900895EF92FF920F931F93CF939F
:100F0000DF93EC01162F0AE08881882309F454C08E
:100F1000813009F04EC08981813099F47E0122E050
:100F2000E20EF11C8A810E943809E7012196812F87
:100F3000815050F3EFE9FFE03197F1F700C0000076
:100F4000F7CF823041F47E0182E0E80EF11C8A8105
:100F50000E943908EACF833041F47E01E2E0EE0ED0
:100F6000F11C8A810E94CB08E0CF843011F02196D9
:100F7000DDCF2A81229690E080E0AE014F5F5F4F87
:100F80002053330B2A30310548F0019778F2EFE90E
:100F9000FFE03197F1F700C00000F7CF089FB001E4
:100FA000099F700D1124C901860F971F2981EA013D
:100FB000E4CF0E941507BACFDF91CF911F910F9117
:100FC000FF90EF90089560E00C947B0708950C94D7
:100FD000E60781E008950C94E9070895CF93C82FA0
:100FE0000E94E7078C2FCF910C94EB07CF93DF93F0
:100FF000CDB7DEB72B970FB6F894DEBF0FBECDBFCF
:101000004F83588769877A878B8761110E941510F3
:101010001E821D8285E0FE013796DE011196019049
:101020000D928A95E1F78C819D81892B89F4498104
:101030005A816B817C818D819E810E94360F2B9617
:101040000FB6F894DEBF0FBECDBFDF91CF910895EC
:1010500089819A8189238F3F51F3CE0101960E94A5
:101060005F068111E4CFEBCFFC01808191810C946C
:10107000D40CCF93C82F882309F48BC08238C1F4D5
:101080000E94692B81FD85C089E30E94D00F0E94D8
:1010900038102FEF81EE94E0215080409040E1F72E
:1010A00000C0000089E30E94D70FCF910C94381044
:1010B0008338A1F40E94692B80FD6BC083E50E94F8
:1010C000D00F0E9438102FEF81EE94E02150804025
:1010D0009040E1F700C0000083E5E5CF8438A1F43B
:1010E0000E94692B82FD55C087E40E94D00F0E94A8
:1010F00038102FEF81EE94E0215080409040E1F7CE
:1011000000C0000087E4CFCF8CEF8C0F813A90F4C1
:101110006C2F80912A0190912B010E94E42B88234F
:1011200029F08C2F0E94D70F0E9438108C2F0E941C
:10113000D00FBBCF80E28C0F883048F4C77081E0BD
:1011400001C0880FCA95EAF70E94F80FAECFEBE511
:10115000EC0FE33040F4F0E0EA54FE4F808190E081
:10116000CF910C94A42BE8E5EC0FE73150F4F0E0BC
:10117000EE0FFF1FE857FE4F80819181CF910C94B5
:10118000BA2BC03F30F08C2F0E94751ACF910C946F
:10119000481BCF910895882309F452C0823871F416
:1011A0000E94692B81FF4CC089E30E94D00F0E94EE
:1011B000381089E30E94D70F0C943810833859F403
:1011C0000E94692B80FF3CC083E50E94D00F0E94E3
:1011D000381083E5EFCF843859F40E94692B82FFE1
:1011E0002FC087E40E94D00F0E94381087E4E2CF1E
:1011F0009CEF980F913AF0F290E2980F983050F4EB
:10120000877091E001C0990F8A95EAF7892F0E94B3
:10121000FE0FD2CF9BE5980F933020F490E080E052
:101220000C94A42B98E5980F973120F490E080E07F
:101230000C94BA2B803F20F00E94CF1A0C94481BCC
:1012400008951F93CF93DF93182FEB010E94390865
:10125000209731F4812FDF91CF911F910C94CB080F
:101260008FE99FE00197F1F700C000002197F0CFD0
:1012700070E060E0893311F460E570E00C942109BE
:10128000882321F00E94F80F0C94381008958823C9
:1012900021F00E94FE0F0C9438100895BF92CF9257
:1012A000DF92EF92FF920F931F93CF93DF936C0126
:1012B000D62FC72FFC011281F580F2949FE0F9220E
:1012C0000E94EE0FE82E8823B9F0E12E1123A1F041
:1012D0008C2F807F803421F080E28D0F8830D0F019
:1012E0008091720382FD16C082E00E9489100E94E4
:1012F000EE0F91E0E82EE926BC2EB2948FE0B822E2
:10130000FBE0FB1508F468C0EB2DF0E0EF52FA4C5F
:101310000C945735E12CF0CF0C2F0F70C07F11F0DB
:101320000295007F112399F0002359F080E28D0F80
:10133000883010F0D11107C0802F0E94F80F0E9452
:1013400038108D2F41C0802F0E940810F8CF8D2FAC
:101350000E94CB08002309F43FC080E28D0F883043
:1013600010F0D11104C0802F0E94FE0F03C0802F07
:101370000E940E100E9438102FC00C2F0F70C07FDB
:10138000C03211F00295007FDD2381F0D13009F4E5
:1013900069C0112309F473C0FF2009F469C0F60184
:1013A000858180FFCECF8F70858362C0809172036C
:1013B00082FF38C0112359F0002329F0802F0E94AA
:1013C000F80F0E94381080E00E94390805C080E0C4
:1013D0000E94CB080111C7CFEB2DE850FF0B3497CB
:1013E00020F40E94692B0E94EE07EE2009F44DC103
:1013F0000E94EA0F80FD49C1F60112820E94E40FAB
:101400000E94210CC6010E94660B0E94E40FDF912E
:10141000CF911F910F91FF90EF90DF90CF90BF90F1
:101420000C942C0C112389F0F11006C00E941B10A3
:10143000802B0E944009D0CF21E0F212F7CF0E940A
:101440001B10802B0E942110C7CFF11006C00E94F4
:101450002E10802F0E944709BFCF31E0F31609F408
:10146000BBCFF5CF112331F085E08F1508F4B4CF51
:10147000802FDFCF94E09F1508F4AECFEACFFF2096
:1014800041F3D93349F4FFEF27EE33E0F150204028
:101490003040E1F700C000008D2F0E94CB089CCFA8
:1014A0008C2F86958695837069F0813009F094CFF2
:1014B0008D2F9C2F9370111102C090E080E00E944C
:1014C000BA2B8ACF8D2F9C2F9370111102C090E000
:1014D00080E00E94A42B80CF8D2F112329F00E9441
:1014E000751A0E94481B78CF0E94CF1AFACF8C2F12
:1014F000837079F5111170CF4D2F42954695477045
:10150000440F440F8D2F8F70042E01C0880F0A9452
:10151000EAF72D2F2071D4FF07C02FE030E001C083
:10152000220F4A95EAF72095C695C695C370822B7F
:10153000C23049F058F4C13019F00E94020C4CCF6F
:101540000E94FD0B49CF0E94070C46CF0E94FB0B67
:1015500043CF8695112311F08C2F8170882309F4D5
:101560003BCF4D2F429546954770440F440F8D2F2A
:101570008F70042E01C0880F0A94EAF72D2F207176
:10158000D4FF07C02FE030E001C0220F4A95EAF7F0
:101590002095C695C695C370822BC23049F058F489
:1015A000C13019F00E94480C17CF0E94430C14CF91
:1015B0000E944D0C11CF0E94100C0ECFCF70112342
:1015C00029F08C2F0E94210C8D2F33CF8D2F0E945C
:1015D00047098C2F0E942C0CFFCED23F51F160F4B2
:1015E000D03FB9F0D13F81F0112309F449C0F11087
:1015F000A8CE8C2F8F7121C0D33F11F1D43FA1F71A
:101600008091720382FF26C08C2F8F71112311F3FA
:1016100014C0112349F084E08F1508F4DDCE8C2F1F
:101620008F710E94380CD8CE95E09F1508F4D4CE67
:10163000F6CF8C2F8F711111CDCF0E94210CCCCE03
:10164000112329F08C2F8F710E94190CC5CE0E9496
:10165000160CC2CE112349F0CF718C2F0E94210CA1
:1016600063E08C2F0E946E10B7CE81E00E9489103B
:10167000E1E0EF1508F0B0CE82E00E948910ACCE18
:10168000F110FFCE8C2F8F71A5CFDF91CF911F91DD
:101690000F91FF90EF90DF90CF90BF9008950F9340
:1016A0001F93CF93DF93EC01688179818A810E9437
:1016B000DE0C8C010E94520C0E94FA0BB801CE0184
:1016C000DF91CF911F910F910C944E09CF93DF932F
:1016D000EC018B819C81892B29F088819981892358
:1016E0008F3F59F4DF91CF910895CE010E944F0BA7
:1016F000CE01DF91CF910C946106CE010E94AE061F
:101700008111F3CF0E94EE0F882361F38A81882331
:1017100049F38091720382FDE5CF82E0DF91CF91A2
:101720000C94891090E080E00E94A42B90E080E06F
:101730000E94BA2B0E9415100E9418100E943810A7
:101740000E946F1C0C94481B0E94DE0F0C94920B9D
:101750000E9405100C94A40BE92FE295EF70E25063
:10176000EE3070F4F0E0E352FA4C0C945735803FC1
:1017700019F020F4883E20F481E00895843FE1F3DD
:1017800080E00895883EC0F3813FD1F7F5CF93FB09
:10179000882780F90895FC01808191810E94D40CF2
:1017A0000C94AC0BCF93DF9300D000D00F92CDB749
:1017B000DEB70F900F900F900F900F90DF91CF91A9
:1017C0000895CF93DF9300D000D000D0CDB7DEB71F
:1017D00026960FB6F894DEBF0FBECDBFDF91CF9136
:1017E000089508950C94F10B0E94F20B8093560219
:1017F0000C94920B08950C94F40B90915602892B43
:101800000C94F40B9091560289230C94F40B909154
:10181000560289270C94F40B0C94F10B0C940C0CCD
:101820000E940E0C809355020C94920B80E00C9455
:10183000100C91E001C0990F8A95EAF7892F0C945A
:10184000100C21E030E001C0220F8A95EAF7809168
:101850005502822B0C94100C21E030E001C0220FC5
:101860008A95EAF720958091550282230C94100CFA
:1018700021E030E001C0220F8A95EAF780915502FD
:1018800082270C94100C90915502892B0C94100C0B
:101890009091550289230C94100C90915502892740
:1018A0000C94100C089529E0929F800D1124982F1C
:1018B000977041E001C0440F9A95EAF786958695A6
:1018C000869593E0899FF0011124EF5CFD4F90E035
:1018D00080E070E05191DF0111979B01082E02C05A
:1018E000369527950A94E2F7217021952527242320
:1018F00025272C9301968330910561F7089529E0FF
:10190000929F800D1124982F9770869586958695C5
:1019100023E0829FF0011124EF5CFD4F50E040E096
:1019200080E0219130E0092E02C0369527950A9477
:10193000E2F721703327042E01C0220F0A94EAF740
:10194000822B4F5F5F4F4330510559F70895CF9277
:10195000DF92FF920F931F93CF93DF936C0100915F
:10196000550280915602082BC7E0D0E010E0FC2E13
:10197000C8010C2E02C0959587950A94E2F780FD68
:101980000CC02197A0F7F12C8F2DDF91CF911F91E3
:101990000F91FF90DF90CF900895B6018C2F0E9499
:1019A0008113019771F3F0CFCF93DF93EC010E9485
:1019B000A70CBE01DF91CF910C9481131F93CF939D
:1019C000DF93EB0190913002992331F0CB01DF914D
:1019D000CF911F910C94D40C882379F0CB010E94F5
:1019E000A70C182F682FCE010E94530CBE01812F27
:1019F000DF91CF911F910C948113CB010E947F0C3A
:101A0000182FF4CF1F93CF93DF93C091570216E0A6
:101A1000809158028C1304C0DF91CF911F910895DB
:101A2000D0E01C9FF0011D9FF00D1124E75AFD4FDF
:101A30004081518162817381848195810E94E10B93
:101A40002196C770E5CF4091890250918A0260913A
:101A50008B0270918C0280918D0290918E020C9479
:101A6000E10BFF920F931F93CF93DF9380918E0230
:101A7000807FD1F480918B028823B1F0809157024E
:101A8000109158026091890270918A02A0918C0293
:101A9000B0918D02062F0723C0912801D091290112
:101AA00096E0F92E181306C0DF91CF911F910F9188
:101AB000FF90089590E0109711F00F3F19F40196F0
:101AC0008770F0CFF89E9001F99E300D1124F90136
:101AD000E75AFD4F41814713F2CF40814613EFCFC4
:101AE00042814111ECCF438154814A1B5B0B4C175F
:101AF0005D0728F780918E028F70806180938E023F
:101B0000F901E25AFD4F80818F708061808389E8FE
:101B100092E00E94660BDF91CF911F910F91FF9091
:101B20000C94020DAF92BF92CF92DF92EF92FF9290
:101B30000F931F93CF93DF93CDB7DEB761970FB6A7
:101B4000F894DEBF0FBECDBF8C0185E0F801DE0149
:101B50001D9601900D928A95E1F7F801E28089E8DF
:101B6000C82E82E0D82E60918C0270918D02611592
:101B7000710509F45FC19091890220918A02892F31
:101B800082238F3F09F456C140815181A380B480E4
:101B9000F0908B02F501E61BF70BBF01E0912801E5
:101BA000F0912901FF2009F4F6C080918E02382FB0
:101BB000307F6E177F0708F0AFC0311179C0FE2C5F
:101BC000251323C0941321C0E1101FC08F708061C2
:101BD00080938E020E94230DC6010E94660B8091A5
:101BE0008E02F80185838F2D61960FB6F894DEBFC3
:101BF0000FBECDBFDF91CF911F910F91FF90EF905E
:101C0000DF90CF90BF90AF900895AB2829F0842F3C
:101C100085238F3F09F027C180E0F82FF170DF2E78
:101C200080FF3CC0809157022091580236E0821319
:101C300015C04D875E878D859E850E94D40C292F07
:101C400022952F702230F0F0243018F59F70F1F0BB
:101C5000F8019581907FD1F4D12C1EC090E0389F7F
:101C6000F001399FF00D1124E75AFD4F6181651392
:101C700006C06081641303C062816E110FC00196BB
:101C80008770D5CF9F7011F0882331F3805E883044
:101C900018F3C8010E94660BFD2CA5CFEE2009F4B5
:101CA000A2CF80918E02816080938E02F12C9BCF17
:101CB000251306C0941304C0F801EE2009F487C070
:101CC000C8010E94CB0B882319F1EE2009F1809105
:101CD0008E02803270F02091890230918A0238871A
:101CE0002F831986BB86AA868C87CE0107960E9411
:101CF000660B86E0F801A9E8B2E001900D928A95A2
:101D0000E1F70E94310D0E94230DFF24F3946BCF65
:101D1000C8010E94660BF9CF311113C07A2DB98A20
:101D2000A88A6E2D89890E94D20B89E892E00E94D0
:101D3000660B86E0F60111928A95E9F70E94230D61
:101D4000B5CF25130FC094130DC0E1100BC0F801DF
:101D50008583C8010E94660B86E0F60111928A9580
:101D6000E9F741CFC8010E94CB0B882389F2EE200E
:101D700079F280918E02803208F4BBCF20918902E3
:101D800030918A023A8329831B82BD82AC828E8382
:101D9000CE010196ACCF6E177F0708F03EC0FE2C37
:101DA000EE2009F4B5CF25132AC0941328C08091E2
:101DB0008E0280FD1BC0982F907FC1F0F8018583B3
:101DC000903F31F0982F907F905F8F70892B8583A3
:101DD000C8010E94660B86E0F801A9E8B2E0019014
:101DE0000D928A95E1F70E94230DFDCE86E0F80161
:101DF000A9E8B2E001900D928A95E1F7F4CEC8010E
:101E00000E94CB0B811175CF80918E0281608093EF
:101E10008E02C8010E94660BE6CE7A2DB98AA88A86
:101E20006E2D89890E94D20B86E0F60111928A9567
:101E3000E9F7D9CFEE2009F46BCFC8010E94CB0B94
:101E4000F82E882309F464CF86E0F801A9E8B2E00F
:101E500001900D928A95E1F789E892E00E9434089A
:101E60000E94310DC0CF81E08E25D7CE1F93CF9336
:101E7000DF93CDB7DEB72C970FB6F894DEBF0FBE59
:101E8000CDBF4F83588769877A878B879C87CE0120
:101E900007960E94920D882369F08A859B85892B7D
:101EA00039F04F815885842F85238F3F09F071C009
:101EB00016E05FC086E0FE013796DE0111960190C4
:101EC0000D928A95E1F78A859B85892B89F38F810D
:101ED000988589238F3F61F32091580230E0C90132
:101EE000019687709927409157024817190671F497
:101EF0000E94A80B109258021092570286E0E9E85F
:101F0000F2E0DF011D928A95E9F7D2CF96E0929F29
:101F1000D001939FB00D1124A75ABD4FFE013196F9
:101F200001900D929A95E1F7809358020E94020D5C
:101F3000BFCF819FC0011124875A9D4F0E94920DEF
:101F40008823E9F0E09157021E9FF0011124E75A1F
:101F5000FD4F4081518162817381848195810E940E
:101F6000E10B8091570290E001968770992780934A
:101F7000570280915702909158028913DACF2C961C
:101F80000FB6F894DEBF0FBECDBFDF91CF911F918A
:101F9000089569857A858B859C850E94E10B88CFA1
:101FA000682F80912A0190912B010C94642C682F4A
:101FB00080912A0190912B010C946F2C80912A0121
:101FC00090912B010C947A2C80918F0285958595A8
:101FD0008595089580918F028770089590918F0262
:101FE000977081E009F480E008958091B30208952C
:101FF0009091B302892B8093B302089580959091BC
:10200000B30298239093B30208951092B3020895F7
:102010009091B202892B8093B2020895809590919D
:10202000B20298239093B20208951092B2020895DA
:102030001092B102089580919002089508950C9431
:102040001E109091720392FD08C090919002981713
:1020500021F0809390020C941F10089580919002BB
:10206000882329F01092900280E00C941F100895AC
:10207000E0912A01F0912B018091B3028083E091DD
:102080002A01F0912B0180819091B202892B8083EB
:10209000E0912A01F0912B0180819091B102892B6E
:1020A000808390919002992381F0E0912A01F09130
:1020B0002B018081892B808380912A0190912B01B3
:1020C0000E94D02B81110E942E1080912A019091A4
:1020D0002B010C947C2B08950C946B10909172033F
:1020E00092FD10C098E0899F90011124622B6093AB
:1020F0008F020E94210C80918F0285958595859590
:102100000C946C100C94210C10928F0280E00C94B3
:102110006C1090918F028095892380938F02282FD5
:10212000277091F4282F082E000C330B92171306FA
:1021300059F09091720392FD07C08595859585951C
:102140000E942C0C0C94841008959091720392FBC1
:10215000222720F9281769F080FB92F990937203E7
:1021600080917103909172030E94F01082E00C94B0
:10217000891008958091720382FB882780F991E08D
:1021800089270C94A51081E00C94A51080E00C9494
:10219000A5106FEF7FEF90E080E00C94B93590E0F0
:1021A00080E00E949535893E9E4F11F40C945A228E
:1021B00080E0089582E090E00C94873583E090E021
:1021C0000C948735CF9384E090E00E948735C82F28
:1021D00082E290E00E948735982F8C2FCF9108954E
:1021E000CF93C92F682F84E090E00E949B356C2F1D
:1021F00082E290E0CF910C949B35AB01BC018FE063
:1022000090E00C94AD35AB01BC0183E190E00C94FF
:10221000AD3560E070E0CB010C94031160E070E03C
:10222000CB010E94FD100C94091169EE7EEF90E045
:1022300080E00E94B93560E082E090E00E949B352A
:1022400060E083E090E00E949B351092560260E0CF
:1022500084E090E00E949B3560E082E290E00E9482
:102260009B3560E085E090E00E949B3560E086E071
:1022700090E00E949B356FEF87E090E00E949B35D5
:1022800040E050E0BA0188E090E00E94AD3560E0A7
:102290008DE090E00E949B3540E050E0BA0188E17B
:1022A00090E00E94AD3560E087E190E00E949B35B0
:1022B00040E050E0BA018CE190E00E94AD3570E062
:1022C00060E080E290E00E94B93540E050E0BA0161
:1022D00088E190E00E94AD3580E00E9473220E9468
:1022E00099220C940E110C941511682F8EE090E039
:1022F0000C949B350E94292D6093D1027093D202D9
:102300008093D3029093D4026093CD027093CE0257
:102310008093CF029093D00208950E94292D60935C
:10232000D1027093D2028093D3029093D40260932F
:10233000C9027093CA028093CB029093CC02089595
:1023400085B7806885BF85B7806885BF0895089583
:1023500008950C94A71108950C94AB110E94A0113C
:1023600089EA94E10E945F2B0E94A8110C94A911A4
:102370000C94D716089508950E94BA110C94BB11BD
:102380000E94142D0E945F140E94A8220E94991599
:102390000E9402240E9460200E94D9260C94AC1155
:1023A0008F929F92AF92BF92CF92DF92EF92FF9265
:1023B0000F931F93CF93DF93CDB7DEB72A970FB656
:1023C000F894DEBF0FBECDBF0E94351681110E946A
:1023D0007A1155EB852E52E0952E10E000E0A02EEC
:1023E000802F0E94E2146C01F401E190F1904F0102
:1023F000E816F90609F463C08091D50281FD0E94B8
:10240000EB14C7018C259D25B12CEE24E394F12C0F
:102410009C012E213F21232B09F44BC00E94B811AF
:102420008823A9F0BE82AF82CE20DF2081E0CD28B4
:1024300009F480E088870E941D2D8160782F9A879B
:1024400089874E815F8168858A850E94F607000F23
:10245000111FF801EB54FD4F80819181E826F92688
:10246000F182E0820E94D5200E945C2781110E94A7
:102470008D110E94631B0E94692B9091B4028917F1
:10248000A9F10E94692B8093B4022A960FB6F894A2
:10249000DEBF0FBECDBFDF91CF911F910F91FF9097
:1024A000EF90DF90CF90BF90AF909F908F900C9463
:1024B000EE07B394EE0CFF1CF9E0BF12A9CF0F5F3B
:1024C0001F4F0A30110509F08ACF8FEF89838A8365
:1024D0001B820E941D2D8160782F9D838C834981F2
:1024E0005A816B818D810E94F607BCCF2A960FB668
:1024F000F894DEBF0FBECDBFDF91CF911F910F913A
:10250000FF90EF90DF90CF90BF90AF909F908F9013
:102510000895CF93DF930E948513EC01811521E587
:10252000920708F042C0811530E5930708F09DC07E
:10253000883E910530F5803E910508F092C0883ABA
:10254000910588F4853A910508F084C081309105A1
:1025500009F487C0009709F484C0049708F081C08B
:10256000D0E0C0E07EC08F3B9105D0F7C85AD0E0E4
:10257000CC0FDD1FC754DE4F0990D881C02DD46425
:1025800070C08115904250F4C11581E0D80708F061
:1025900068C0C03FD10520F3D06563C0C11590E489
:1025A000D907F0F2DF70D06A5CC0811525E592078B
:1025B00000F5811534E5930708F08BC0811543E5DC
:1025C000940708F073C0C11582E5D80708F469C004
:1025D000CE018370992721E030E002C0220F331F23
:1025E0008A95E2F7C695C69580E2C89FE00111245E
:1025F00054C0C11599E5D907A8F4C11528E5D2073B
:1026000008F06CC0C11536E5D30708F0A9CF8C2FB0
:102610000E941C14C82FD0E0DC2FCC27CC27DF7100
:10262000D0621FC0C1154AE5D40708F45CC0CE01D2
:1026300090568115904208F093CF8D2F8F710E9494
:102640001C1490E0982F882788279F719C012C2BC1
:10265000E901E6CFC55AD0E0C951DE4FC881D0E0CC
:10266000D064CE01DF91CF910895E4E096958795EF
:10267000EA95E1F783702C2F26952695237040E28A
:10268000249F90011124382B8C2F8370C1E0D0E05F
:1026900002C0CC0FDD1F8A95E2F7C22BD32BDC687A
:1026A000E0CFDC2FCC27C16FD06ADBCF83709927B6
:1026B00021E030E002C0220F331F8A95E2F7C69571
:1026C000C69590E2C99FE0011124C22BD32BDA6892
:1026D000C8CFD82FCC27C46FD06AC3CFDC2FCC276C
:1026E000C06FD06ABECF8C2F8F700E941C1434E054
:1026F000D695C7953A95E1F7CF709C2FEC01D0693C
:10270000B0CF0E940C260C94891282389105B1F149
:10271000B0F48133910509F475C048F4893291050C
:1027200009F469C08A32910509F473C008958533AC
:10273000910509F459C08933910501F10895833E4B
:102740009105A9F138F4803E9105F9F0823E91059A
:1027500049F10895863E9105A9F1873E9105C9F199
:10276000843E910519F52091720321FF1FC08091CD
:10277000710384FD14C087EE90E0089520917103E9
:102780002370A1F080EE90E008952091710320FD68
:1027900047C03091720330FF09C024FF44C090E06D
:1027A00080E004C02091710322FDF7CF08952091AD
:1027B000710322FD3BC03091720330FDE3CF24FF53
:1027C000F5CFEDCF2091710323FFF0CF24FDE7CFAC
:1027D000D2CF2091710323FD2CC03091720331FFC1
:1027E000EECF84EE90E008952091710325FFDECFB7
:1027F00089E290E008952091710325FFD7CF85E30A
:1028000090E008952091710326FFD0CF8AE290E0F6
:1028100008952091710326FFC9CF81E390E00895C8
:1028200089E390E0089583EE90E0089582EE90E0D1
:10283000089586EE90E008959091710392FF06C08E
:10284000282F28712830F9F4877F846093FF06C011
:10285000282F28712831F1F4877E8461209172033A
:1028600020FF06C0382F38713830D9F4877F816057
:1028700021FF06C0282F28712831D1F4877E81617D
:1028800094FD877E0895282F24712430F9F68B7FDC
:102890008860DCCF282F2471243101F78B7E88617A
:1028A000DDCF382F3171313019F78E7F8860E0CF5E
:1028B000282F2171213121F78E7E8861E1CF10927E
:1028C0006D0310926E0310926F03109270030895BF
:1028D000CF92DF92EF92FF926B017C010E94D7169C
:1028E00081110EC00E94292DC61AD70AE80AF90ADA
:1028F000C0926D03D0926E03E0926F03F09270036A
:10290000FF90EF90DF90CF9008950F931F930E9458
:10291000D716882321F01F910F910C94292D0E9426
:10292000292D00916D0310916E0320916F0330915A
:102930007003600F711F821F931F1F910F910895E5
:102940000E94D71681110C941D2D0E948514CB0175
:10295000089580E008950C94C9100E9435168FE305
:102960009CE90197F1F700C000000E94351680E055
:102970000E94E21480FF04C00E94AB140C94842DCA
:1029800008950C94AD140E94CF10811102C00E94D2
:1029900073110E94DA108093D5020E94E210909386
:1029A0007203809371030E94C1140E94DE100E9482
:1029B000FB0B809155020C940E0C08950C94DD14C1
:1029C0000C945A04E82FF0E0EE0FFF1FE957FC4F7C
:1029D000808191810895089580EA8A95F1F708959C
:1029E00000C008950C94EC14F894E82FE295EF7071
:1029F000F0E031A1282F2F7081E090E001C0880F16
:102A00002A95EAF7982F9095932391A392A1892B69
:102A100082A37894089508950C940B15CF93DF93B7
:102A2000C3EFD1E089918F3F11F00E94F41481E04F
:102A3000C83FD807B9F7CAEED1E089918F3F11F0AE
:102A40000E94F41481E0C33FD807B9F7DF91CF911A
:102A50000895AF92BF92DF92EF92FF920F931F9370
:102A6000CF93DF938C01D62EC62FD0E0CE018D50B0
:102A70009E4F7C01FC0120812F3F09F44DC0F8944A
:102A8000E22FE295EF70F0E031A12F7081E090E04D
:102A900001C0880F2A95EAF7932F982B91A392A152
:102AA0008095892382A378940E94F014EAEEF1E0E5
:102AB00043EF51E021E030E0B12CA12C61916F3F58
:102AC000A9F1A62FA295AF70B0E090968C9190E0FE
:102AD0006F7002C0959587956A95E2F780FD26C0D4
:102AE000C901A82AB92A220F331F4E175F0731F7F1
:102AF000F70180818F3F11F00E94F41461E0A1146E
:102B0000B10409F460E08D2D0E94F214CC0FDD1F9A
:102B1000C00FD11FB982A882DF91CF911F910F9171
:102B2000FF90EF90DF90BF90AF90089590E080E02D
:102B3000D8CF0E94EF1680912C0180912C0195E056
:102B4000811190E090939C0385E0891B80939B0307
:102B50000E940E1584E1E7E8F3E0DF01982F1D9253
:102B60009A95E9F7E3E7F3E0DF011D928A95E9F72B
:102B700085E00E948A160E9492060C940417EF9238
:102B8000FF920F931F93CF93DF93CDB7DEB72A97B2
:102B90000FB6F894DEBF0FBECDBF0E94D716F82E39
:102BA00060919C03882309F44FC05AE0E52E8E0102
:102BB0000F5F1F4FF8018E2D11928A95E9F7862F2E
:102BC00090E0880F991FB80189579C4F0E941217F7
:102BD000882311F180919B0390E0880F991F4AE0B0
:102BE00050E0B80189579C4F0E94713521E0209335
:102BF000D602892BD9F4F12C0E9498068F2D2A96A3
:102C00000FB6F894DEBF0FBECDBFDF91CF911F91FD
:102C10000F91FF90EF9008958091D602882359F389
:102C2000F8011192EA94E9F71092D602A0919B0361
:102C3000B0E0AA0FBB1FA957BC4F8AE0F801019072
:102C40000D928A95E1F7D8CF70E0660F771F69572C
:102C50007C4F80919B0390E0880F991F89579C4F70
:102C60000E949F170E940C15C9CFEF92FF920F93FD
:102C70001F93CF93DF93CDB7DEB764970FB6F89469
:102C8000DEBF0FBECDBF8E010F5F1F4F84E1F80185
:102C900011928A95E9F7F12C6F2DC8010E94291530
:102CA000F394F5E0FF12F8CF44E150E0B80183E778
:102CB00093E00E9471357C0121E0892B09F420E02A
:102CC000E114F10441F084E1F801A3E7B3E00190DD
:102CD0000D928A95E1F760919C0370E0660F771F73
:102CE00069577C4F45E083E793E00E948B1681E0B3
:102CF00090E0EF2811F40E94BF1564960FB6F89487
:102D0000DEBF0FBECDBFDF91CF911F910F91FF901E
:102D1000EF9008950895FF920F931F93CF93DF9341
:102D2000F82E092F162FD72FC42F222349F081E028
:102D30008093D9020E941D2D9093D8028093D702D0
:102D40008091D9028823A1F08091D7029091D80276
:102D50000E94352D059760F0EF2DF02FA12FBD2F8C
:102D600090E080E0D0E08C179D0744F01092D902EB
:102D7000DF91CF911F910F91FF9008952191319193
:102D80002D933D930196EFCFCF9357985F9A229A58
:102D90002A9885E08A95F1F70000C9B122982A9A0D
:102DA0000E94EC14C7FB882780F9CF910895809189
:102DB000DC02811107C00E942235882351F081E096
:102DC0008093DC0281E09091DC02913009F080E098
:102DD000089582E08093DC020E941D35F3CF0E94AB
:102DE000C41680932C0180912C016EE1882349F058
:102DF00080E00E94161D0E94D716882321F00C94B3
:102E000048178EE1F6CF08950E94D716811102C0AF
:102E10000C944A17089581E09091DD029A3008F0F1
:102E200080E008950F931F93CF93DF93EC018B0104
:102E30008091DD028A30B8F4B801CE010E949D175E
:102E4000C82F811122C08091DD028F3FB9F40E940A
:102E50001D2D9093DB028093DA028C2FDF91CF91AE
:102E60001F910F9108958091DA029091DB020E94E8
:102E7000352D843F914000F7C0E0EFCF8F5F809306
:102E8000DD028A3020F7C1E0E8CF1092DD02E5CF05
:102E90000C949E290C94A129EF92FF920F931F93FB
:102EA000CF93DF937901C82F880FDD0B41155105B2
:102EB000A9F08AE08C9FF0018D9FF00D1124E35D55
:102EC000FE4F8381948182529D4F228130E04217D0
:102ED000530708F49A01A9010E947E35CE010E9491
:102EE000AB2A892B11F501151105E9F08AE08C9FB9
:102EF000F0018D9FF00D1124E35DFE4F458150E000
:102F00000417150708F4A8018AE08C9FF0018D9F33
:102F1000F00D1124E35DFE4F6681778162527D4F93
:102F2000C7010E947E3581E001C080E0DF91CF9132
:102F30001F910F91FF90EF9008950C9445190C94F8
:102F400071190F931F93CF93DF9300D000D0CDB7AB
:102F5000DEB760910E0370910F0380911003909182
:102F600011030E94442D11E064367105810591051D
:102F700018F10E9485146E5F7F4F8F4F9F4F6983BA
:102F80007A838B839C8310E000E030E020E044E013
:102F900050E0BE016F5F7F4F84E00E944C17182FF6
:102FA000882351F00E94292D60930E0370930F0324
:102FB0008093100390931103812F0F900F900F9027
:102FC0000F90DF91CF911F910F9108957F928F9273
:102FD0009F92AF92BF92CF92DF92EF92FF920F93A8
:102FE0001F93CF93DF930F92CDB7DEB7762E4A01B2
:102FF0005901680101E010E09E012F5F3F4F50E052
:1030000040E070E060E00E944C17182F882309F41C
:103010003EC0F40160817181828193810E94442DC0
:10302000643671058105910558F18701950150E0DD
:1030300040E070E060E0872D0E944C17B82EB70189
:10304000C6010E94032411E09981981310E01B210E
:1030500039F00E94292DF401608371838283938368
:10306000812F0F90DF91CF911F910F91FF90EF90E3
:10307000DF90CF90BF90AF909F908F907F900895FA
:10308000B701C6010E94032499818913CECFA701FD
:10309000B601C5010E947E35E3CFEF92FF920F93F8
:1030A0001F93CF93DF9300D0CDB7DEB70091FD0122
:1030B0001091FE01045F1F4F82E0E82EF12C9E016B
:1030C0002F5F3F4F4AE053E063E082E00E94E61743
:1030D000182F882321F0CE0101960E940328812F0A
:1030E0000F900F90DF91CF911F910F91FF90EF9074
:1030F0000895CF92DF92EF92FF920F931F93CF9399
:10310000DF93CDB7DEB72A970FB6F894DEBF0FBEB8
:10311000CDBF6B010091FD011091FE010F5F1F4FAC
:103120008AE0E82EF12C9E012F5F3F4F46E053E0EE
:1031300061E080E00E94E617882349F09AE0FE01F2
:103140003196ACEFB2E001900D929A95E1F79AE0DA
:10315000ECEFF2E0D60101900D929A95E1F72A96F4
:103160000FB6F894DEBF0FBECDBFDF91CF911F9198
:103170000F91FF90EF90DF90CF9008950F931F93E2
:10318000CF93DF93CDB7DEB728970FB6F894DEBFA5
:103190000FBECDBFCE0101960E94881F1885609199
:1031A00012037091130380911403909115030E94F0
:1031B000442D643671058105910510F41123C1F089
:1031C00010E000E030E020E048E050E0BE016F5F3A
:1031D0007F4F85E00E944C17882369F00E94292DBB
:1031E0006093120370931303809314039093150359
:1031F0000E94851F81E028960FB6F894DEBF0FBEAF
:10320000CDBFDF91CF911F910F910895AF92BF92E3
:10321000CF92DF92EF92FF920F931F93CF93DF93A2
:103220007C015B016A010E940B1701E010E088231A
:1032300011F00AE010E0C1E0D0E0F894B501C70158
:10324000F60109957894811104C021960C171D0789
:103250005CF4DF91CF911F910F91FF90EF90DF9081
:10326000CF90BF90AF900895CC9F9001CD9F300D2F
:10327000300D112490E080E045E34A95F1F700001D
:10328000019682179307C1F7D8CF0F931F93CF935F
:10329000DF93EC018B0149E758E10E94061988236E
:1032A000D1F04DE458E1B801CE010E9406198823FF
:1032B00091F041EA57E1B801CE010E940619882336
:1032C00051F04EEB58E1B801CE01DF91CF911F9143
:1032D0000F910C94061980E0DF91CF911F910F910F
:1032E0000895CF92DF92EF92FF920F931F93CF93A7
:1032F000DF9300D0CDB7DEB7F8940091FD011091B7
:10330000FE01C80101962AE0FB01DC0101900D924B
:103310002A95E1F76AE070E00E940324F8018083B7
:103320007894F894CE0101960E94F82789819A81B9
:10333000F8019587848762E070E0CE0101960E94D3
:103340000324F80183877894F894668577858089CB
:103350009189C090F802D090F902E090FA02F090C2
:10336000FB026C157D058E059F0551F06093F802F8
:103370007093F9028093FA029093FB020E94681402
:103380007894F894F801818D882339F060E0C801C1
:1033900042960E94A020F801118E78940F900F9011
:1033A000DF91CF911F910F91FF90EF90DF90CF9021
:1033B00008950E946C2F0E94C0110C94782F0E94D7
:1033C0007C2F0E94D0110C94962F0E94A62C0E9454
:1033D000532F0E94AE110E94D9190E94DF190E943A
:1033E000BC11FBCF80911C0380FF12C060916E0165
:1033F00085E0689FB001112475956795759567956F
:1034000060387105A8F561157105A1F1862F089541
:1034100081FF09C060916E0185E0689FB0011124B1
:1034200075956795EDCF60916E0182FD0AC0809120
:103430001B038823D1F090916D0160916E01891773
:1034400028F085E0689FB0011124DACF869FB00193
:10345000112485E0869F9001879F300D1124692FEC
:1034600070E0C9010E944335CBCF65E070E0CECF5C
:103470008FE7089581E0089580911C0380FF0CC0C0
:1034800060916A0170E0759567957595679561150E
:10349000710549F1862F089581FF06C060916A0188
:1034A00070E075956795F3CF60916A0182FD0BC05E
:1034B00090911A039923A1F06091690180916A01AA
:1034C000961738F0682F70E06038710500F38FE7C9
:1034D0000895899FC001112470E00E944335F4CF04
:1034E00061E070E0D7CF81E00895803F31F40E9421
:1034F000F2198195809320030895813F19F40E9469
:10350000F219F8CF823F31F40E94F219819580932D
:103510001F030895833F19F40E94F219F8CF893FE1
:1035200029F40E943C1A8093210308958A3F21F4D4
:103530000E943C1A8195F7CF8B3F31F40E943C1AD0
:1035400081958093220308958C3F19F40E943C1AC0
:10355000F8CF9CE0980F953070F4845F990B21E0D0
:1035600030E001C0220F8A95EAF780911E03822B7A
:1035700080931E0308958D3F31F480911C03816078
:1035800080931C0308958E3F21F480911C03826078
:10359000F7CF8F3FB9F780911C038460F1CF409142
:1035A0001F03803F59F48091200387FF0DC01092C4
:1035B000200341110BC010921B0308C0813F81F40E
:1035C0008091200318169CF3442381F080912103FD
:1035D00090912203892B09F05AC010921A03089582
:1035E000823F49F447FFF0CF10921F0380912003E0
:1035F0008111ECCFE0CF833F19F41416ACF3E4CF84
:1036000090912103893F29F41916F4F610922103B1
:10361000DBCF8A3F19F497FFD7CFF8CF90912203E1
:103620008B3F29F497FFD0CF10922203CDCF8C3F50
:1036300019F41916CCF3C8CF9CE0980F953090F48C
:10364000845F990B21E030E0B90102C0660F771F5B
:103650008A95E2F7CB01809590911E038923809390
:103660001E03B2CF8D3F31F480911C038E7F809377
:103670001C03AACF8E3F21F480911C038D7FF7CFCE
:103680008F3F09F0A1CF80911C038B7FF0CF08956D
:103690000E941D2D9C0190911F0380912003982B67
:1036A00021F0309319032093180390912103809106
:1036B0002203982B21F030931703209316038DE1FA
:1036C00093E00C94962BEF92FF920F931F93CF935E
:1036D000DF9300D000D000D0CDB7DEB786E0EDE1BB
:1036E000F3E0DE01119601900D928A95E1F7E090EA
:1036F0001F03F090200300912103109122031092E8
:103700001F031092200310922103109222038E2D8A
:103710008F2991F080911803909119030E94352D03
:10372000AC0190911B03992309F43FC080916F0174
:103730008417150608F447C0802F812B91F08091E3
:103740001603909117030E94352DAC0190911A0336
:10375000992309F477C080916B018417150608F44A
:103760007FC080911F0390912003892B90912103AA
:10377000892B90912203892B11F00E94481B86E02F
:10378000FE013196ADE1B3E001900D928A95E1F72B
:1037900026960FB6F894DEBF0FBECDBFDF91CF9156
:1037A0001F910F91FF90EF900895209170018AE092
:1037B000289F900111242417350708F0BDCF9F5F83
:1037C00090931B0302C09F3FD1F7EE2059F00E9457
:1037D000F2199FEF1E140CF491E0899F802D1124A3
:1037E00080931F03FF2059F00E94F2199FEF1F14CE
:1037F0000CF491E0899F802D112480932003309157
:103800001F03332309F498CF20912003222309F4C6
:1038100093CF45EB3403C0011124992359F09093C1
:103820001F0345EB240390011124332339F0309317
:10383000200382CF81E080931F03F3CF81E0809348
:1038400020037ACF20916C018AE0289F90011124F7
:103850002417350708F085CF9F5F90931A0302C0A5
:103860009F3FD1F7002359F00E943C1A9FEF10169A
:103870000CF491E0899F802D112480932103112362
:1038800059F00E943C1A9FEF11160CF491E0899FA9
:10389000802D11248093220330912103332309F4D6
:1038A00060CF20912203222309F45BCF45EB340340
:1038B000C0011124992359F09093210345EB24036F
:1038C00090011124332339F0309322034ACF81E051
:1038D00080932103F3CF81E08093220342CF86E0DF
:1038E000EDE1F3E0DF011D928A95E9F710921B03E9
:1038F00010921A0310921C030895EF92FF920F93F7
:103900001F93CF93DF93EB01E82FD11110C0442315
:1039100021F0F0E0E85CFA4FE4916E2F7E2F8E2FBD
:10392000DF91CF911F910F91FF90EF9008950D2F90
:1039300010E0282F30E0442329F0285C3A4FF901A9
:10394000249130E0F6E0CF9FC0011124EFEFF0E0CA
:10395000BF010E942F35AB018C2F90E0880F991F7B
:10396000A5E5A49FB001A59F700D1124861B970BA0
:10397000982F990F980FBF01601B710B629FD001A8
:10398000639FB00D729FB00D11248B2F9D9FB001CE
:103990001124672F7727EF01C61BD70BBE01629F4B
:1039A000E001639FD00D729FD00D11247F01E91AB1
:1039B000F108E09EB001E19E700DF09E700D1124A3
:1039C000672F7727E61BF70BE29F8001E39F100D1F
:1039D000F29F100D1124E12F722F4230510599F002
:1039E00048F44115510569F04130510581F0EB2F44
:1039F0008D2F07C04430510569F080F046305105E5
:103A0000B1F76E2F8DCFE22F7B2F812FFACFE22FD0
:103A10007D2FF7CFEB2F822F712FF3CF7B2F822FAC
:103A2000ED2FEFCF41E00C947D1C0895E1E7F1E02C
:103A30008083618308950C94121DCF93DF93762FBA
:103A4000E901682F842F0E941B1D798368838A8374
:103A5000DF91CF910895433808F042E80C941D1D82
:103A600080919E03982F9E7F61F481708260809385
:103A70009E038091A103833818F082E88093A1030C
:103A800008958032B0F381708E61F1CF88E090E0CC
:103A90000C948F35CF92DF92EF92FF926B017C01F5
:103AA0000E94301DB701A60188E090E0FF90EF90E2
:103AB000DF90CF900C94AD3560919E0370919F0381
:103AC0008091A0039091A1030C944A1DEEE9F3E0CC
:103AD00083E0808311828FEF828382E88383148264
:103AE000AEE2B3E012968C911297836012968C939B
:103AF00060817181828193810C944A1D80919E0323
:103B000080FF02C08695089580E008959091A203F9
:103B1000933018F49F5F9093A203882351F0609133
:103B20009E0370919F038091A0039091A1030C9438
:103B30004A1D089581E00C94861D9091A20399235B
:103B400019F091509093A203882351F060919E0345
:103B500070919F038091A0039091A1030C944A1D42
:103B6000089581E00C949D1D8091A2030895809397
:103B7000A203662351F060919E0370919F03809190
:103B8000A0039091A1030C944A1D089560E00C9449
:103B9000B71D80919F0308958091A003089580919F
:103BA000A103089570E00C942E226091720180911F
:103BB0009E0380FF0AC08091710123E0829FC001B3
:103BC00011248D559C4F0C94D21D809173019091BE
:103BD000740123E0829FF0011124ED55FC4F8917F9
:103BE00050F71182108212828F5F3396F8CF909136
:103BF0009E0390FF14C0909173012091740133E0F3
:103C0000939FF0011124ED55FC4F921710F00C9486
:103C1000D51D8183608342839F5F3396F6CF0895DD
:103C2000CF93DF9300D00F92CDB7DEB790919E0374
:103C300090FF0AC09E012F5F3F4F0E942B1D4B81BA
:103C400069818A810E94F71D0F900F900F90DF917C
:103C5000CF910895CF93DF93EC01EC81F0E0E85C25
:103C6000FB4F4491EEE9F3E0628181810E94101ED6
:103C70008C818F5F8C83DF91CF910895CF93DF93F9
:103C8000EC01EEE9F3E0438162818C810E94101E19
:103C90008C818F5F8C83DF91CF910895EF92FF929B
:103CA0000F931F93CF93DF9300D00F92CDB7DEB762
:103CB000182FF62E042FE22E80919E0380FF39C02C
:103CC000E82FE695F0E0E150FE4F908190932E03AF
:103CD0008E7F8230C1F59E012F5F3F4F812F0E9462
:103CE0002B1D4B8169818A810E94F71D80919F0362
:103CF000811308C08091A0038F1104C08091A1039B
:103D0000801729F0809130038260809330031093F4
:103D10009F03F092A0030093A103EE2051F0609165
:103D20009E0370919F038091A0039091A1030E9434
:103D30004A1D0F900F900F90DF91CF911F910F911F
:103D4000FF90EF900895923019F40091A103CECF27
:103D500080919F03963011F0993041F6182FC6CF0D
:103D6000EEE9F3E09181282F4381628188E0890F99
:103D70000C944E1E81E00C94B01EEEE9F3E09181AC
:103D8000282F4381628188EF890F0C944E1E81E0B9
:103D90000C94BD1EEEE9F3E0628121E1620F08F4AC
:103DA0006FEF282F438181810C944E1E81E00C948B
:103DB000CA1EEEE9F3E0628121E1621B08F460E0D3
:103DC000282F438181810C944E1E81E00C94D91ED2
:103DD000EEE9F3E0438121E1420F08F44FEF282F91
:103DE000628181810C944E1E81E00C94E81EEEE904
:103DF000F3E0438121E1421B08F440E0282F628177
:103E000081810C944E1E81E00C94F71E20E00C94EE
:103E10004E1E0F931F93CF93DF9300D00F92CDB719
:103E2000DEB78C018091230381110AC09E012F5FB0
:103E30003F4F42E86FEF0E942B1D8A81809323033E
:103E4000F8016481613069F08091230340E06623CA
:103E500061F040E0623011F44091230380E060E0C3
:103E600004C06091230340E080E00E94F71DF80148
:103E7000848190E0019663E070E00E944335848382
:103E80000F900F900F90DF91CF911F910F91089598
:103E9000EF92FF921F93CF93DF93EC0110E0EE249B
:103EA000EA94F12C60917501161770F00E94D51DEF
:103EB0009A818C8190FF27C08F5F8C83DF91CF9197
:103EC0001F91FF90EF90089520917301422F410FB1
:103ED0005527551FCA019A01220F331F280F391F7A
:103EE0002D553C4F70E0C7010E944335962F8C81C1
:103EF0004091A1036091A003199F800D11240E949D
:103F00002B1D1F5FCFCF8150D8CF10923003089563
:103F100025E0EEE9F3E0DC0101900D922A95E1F74E
:103F200020912E0330912F0340913003FC01258313
:103F3000368347830895EEE2F3E011828281846044
:103F400082830895EEE9F3E080818E7F80830E9472
:103F50009B1FEEE2F3E08281816082832FEF80E796
:103F600092E0215080409040E1F700C000000C94A6
:103F7000D51DEEE9F3E080818E7F808360817181C1
:103F8000828193810E944A1D0E949B1FEEE2F3E012
:103F90008281816082832FEF80E792E02150804010
:103FA0009040E1F700C000000C94D51D60919E0385
:103FB000669570E041E050E086E791E00E9464354C
:103FC000892B19F481E080932F030E94A014909311
:103FD000280380932703809130038460809330030B
:103FE000089590919E0390FF3AC0917081112DC069
:103FF000926090939E0380913003816080933003A0
:10400000662351F060919E0370919F038091A003FD
:104010009091A1030E944A1D60919E03669570E0F5
:1040200041E050E086E791E00E946435892BA1F0E1
:104030000E949B1F81E080932A034091A10360911D
:10404000A00380919F030C94061F803110F09E61A5
:10405000D0CF880F982BCDCF0E94D61FEBCF0895DD
:10406000682F90919E03969581E0890F803108F02A
:1040700081E00C94F11F81E00C943020682F909126
:104080009E0396958FEF890F09F48FE00C94F11F32
:1040900081E00C943E2061E00C94F11FEEE9F3E026
:1040A00080818160808386950C944B2080919E0353
:1040B00080FD0C94B91F0C944E2060E00C94F11F0D
:1040C00080912D03811133C00E94CF10811104C053
:1040D0000E9473110E94661D0E94461D60939E03FC
:1040E00070939F038093A0039093A103809130036A
:1040F0008360809330036E7F61F40E94661D0E948E
:10410000461D60939E0370939F038093A00390933A
:10411000A1030E94301D0E949B1F80919E0380FF7F
:1041200003C086950E945D2081E080932D03089551
:10413000EEE9F3E080818160808386950C945D20B8
:104140001F93CF93DF93EC01162F8F8180FF0CC05C
:10415000888180FF24C080919E03816080939E03AC
:10416000888186950E94F11F8F8181FF06C0212FD3
:104170004B816A8189810E944E1E8F8182FF05C01A
:104180008E81882379F00E94D61F8F8183FF03C020
:1041900081E080932A03DF91CF911F9108950E94BF
:1041A000A21FE2CF0E949B1FF0CFEF92FF920F93CE
:1041B0001F93CF93DF9380912F03882309F462C06C
:1041C00080912E03E0919E03E695E81BE09329037E
:1041D000823009F05EC0F0E0EC5CFB4FE491CE2F42
:1041E000D0E00AE21EE180912A03882361F0109258
:1041F0002A030E94A014909328038093270310920F
:104200002C0310922B030E94A014E0912703F0913D
:1042100028039C012E1B3F0B2F3F3F4798F5209111
:1042200026032223B1F0109226032091240330911B
:104230002503821B930B8F3F9F4758F4205D3A481C
:10424000309325032093240380913003886080936A
:104250003003E0902B03F0902C03CE0FDF1FD093A0
:104260002803C093270387E293E0F8010995809122
:104270002B0390912C03892B29F4EF2819F081E06E
:1042800080932603DF91CF911F910F91FF90EF90C4
:104290000895863049F4F0E0EF5CFB4FE491CE2FB7
:1042A000D0E00EE31EE19FCF893051F4E695F0E0B7
:1042B000E25DFB4FE491CE2FD0E008E41FE193CF05
:1042C000C0EDD7E005E11DE18F3009F08CCFECE2C5
:1042D000F4E0C591D49109E01FE185CFFA01811185
:1042E00001C0FB010994CF93DF93C82FD62F0E9402
:1042F0007E1D8C1740F00E947E1D8D1720F4DF91EB
:10430000CF910C943B208C2FDF91CF910C944B20BC
:104310001F93CF93DF93EC01FB011281111162C057
:104320000E94F50F8272CB3CFCE5DF0709F480C0E8
:10433000A8F5C63CECE5DE0709F466C0D8F4C33C3A
:104340009CE5D90709F456C030F4C23CDC4509F4B9
:104350004EC011E047C0C43C9CE5D90709F44FC0EA
:1043600047EC5EE16AEB7EE1C53CDC4591F70E94DB
:104370006E2138C0C83CFCE5DF0709F44FC008F4E3
:1043800048C0C93CECE5DE0709F44DC044EF5EE1EE
:1043900063E07FE1CA3CDC4551F3DBCFC03D9CE5E7
:1043A000D90709F456C0A0F4CD3CFCE5DF0709F4B9
:1043B00049C008F442C0CE3CECE5DE0709F446C033
:1043C00068E086E0CF3CDC4521F60E9473210AC0FC
:1043D000C53D8CE5D80709F43FC020F0CD35DD455B
:1043E00009F0B7CF812FDF91CF911F9108950E94DF
:1043F0005620F8CF48E450E26BE370E2B8CF4BE3CD
:1044000050E268E470E2B3CF4AEB5EE167EC7EE134
:10441000AECF45EE5EE166ED7EE1A9CF46ED5EE111
:1044200065EE7EE1A4CF43E05FE164EF7EE19FCFE4
:1044300041EB5DE16AE97DE19ACF4AE95DE161EB3B
:104440007DE195CF81E00E944B20CCCF65E082E0FA
:10445000BCCF6EE089E0B9CF8FE0F5CF539A4BB176
:10446000477F5BB15860EFB7F8949B01220F331F71
:10447000260F371F280F391F2817390741F4EFBFC0
:104480008FE594E00197F1F700C000000895DC018A
:104490006D91CD0178E05BB9000000C067FF4BB9BA
:1044A000660F000000C000C000C04BB900C07A9584
:1044B00091F7E2CF83E290E00E948735813289F460
:1044C00084E290E00E948735823159F485E290E0E1
:1044D0000E94873591E0803309F090E0892F817048
:1044E000089580E0FCCFCF93C82F6FEF811161E278
:1044F00083E290E00E949B356FEFC11162E184E29C
:1045000090E00E949B356FEFC11160E385E290E07F
:10451000CF910C949B35089586E290E00E948735F8
:10452000682F70E090E080E0089586E290E00C94BF
:104530009B3580E00E94732260E070E0CB010E9416
:1045400095220E9484250E94702681E00C9473229B
:104550000E948B220E945A22811102C00C9499223F
:104560000895CF93FB01C281CC2309F19C01225114
:104570003F452031310520F582510E948026C0E060
:104580008C2FCF91089581E00E94210C43E062E0DE
:1045900081E00E948906F3CF81E00E942C0C43E069
:1045A00062E081E00E948906EBCF82E0F6CF8031A5
:1045B000FFE59F0789F381319F45B9F3C1E0E0CF63
:1045C0008031EFE59E07F9F281319F45C9F682E01F
:1045D000DBCF2FEFFC0120830895CF93DF93EC0115
:1045E00088818138A9F028F4803871F0DF91CF916B
:1045F0000895823881F08338C9F70E94C91D8983E4
:104600000E94CC1D8A83F2CF0E94CF1D8983EECFFA
:104610000E947E1DFBCF0E94B41DF8CFCF93DF9385
:10462000EC0188818138E1F028F4803869F0DF916D
:10463000CF910895823811F18338C9F70E94CF1DB8
:10464000482F6A81898108C0D9810E94CC1DC82F5A
:104650000E94C91D4D2F6C2FDF91CF910C94061F26
:1046600089810E945D208981811104C0DF91CF91F1
:104670000C94A21FDF91CF910C9498208981DF9137
:10468000CF910C94C61DEF92FF920F931F93CF937F
:10469000DF93EC01062FDC01ED91CD01E150E33118
:1046A00008F0ADC0F0E0E551FA4C0C945735198292
:1046B00089E08A83602FCE01DF91CF911F910F9106
:1046C000FF90EF900C942C2E8981823069F083301A
:1046D00071F08130D9F40E94292D0E945D356A83E2
:1046E0007B838C839D83E6CF0E948C22F6CF7E0154
:1046F00010E0812F0E94E214F701928383831F5FF1
:10470000F2E0EF0EF11C1A30A1F7D4CF602FCE01EA
:104710000E94E922CFCF89818230C1F76A817B81F3
:104720008C819D810E945D350E949522C3CF4B8173
:104730006A8189810E9456259827892798279D8319
:104740008C83B8CF2C813D813227232732274B81A0
:104750006A8189810E946F25ADCF0E948425AACFEE
:104760000E940E23A7CF0E94ED22A4CF0E945C1DC1
:10477000A1CF0E94192689839DCF0E941B269827CE
:10478000892798279A83898395CF6B8170E08981E7
:104790009A81AE014C5F5F4F9827892798270E9426
:1047A0001E2688CF6B8170E089819A81AE014C5FB3
:1047B0005F4F9827892798270E9445267BCF0E9424
:1047C000702678CF0E944425D6CF6B8170E0898116
:1047D0009A81AE014C5F5F4F9827892798270E94E6
:1047E000BC2568CF6B8170E089819A81AE014C5FF6
:1047F0005F4F9827892798270E94E2255BCF8FEF8C
:10480000888358CF0895FC01680F791F8FEF91E3DB
:104810006E177F0709F408952191822728E030E080
:1048200087FF06C0880F892721503109C9F7F0CFCB
:10483000880FFACFCF93DF93EC01FB0182818823AD
:1048400009F420C1C330FDE5DF07C8F5CA3F9CE588
:10485000D90730F49E0122503C452431310598F5AA
:104860000E94E2109093720380937103C031FCE5C3
:10487000DF0709F4E0C008F061C0C8309CE5D90743
:1048800009F4CBC088F5C430FCE5DF0709F4B3C0F8
:10489000E8F4C2309CE5D90709F4A7C08091710300
:1048A0008260C330DC4509F4A3C08091710390910C
:1048B00072030E94F0100E94A80B80E004C0C13671
:1048C000EDE5DE0769F2DF91CF91089580917103E4
:1048D0008061C630FCE5DF0709F48AC008F48FC0A8
:1048E00080917103806284C0809171038D7FCC3090
:1048F0009CE5D90709F47CC070F4809171038C6049
:10490000CA30FCE5DF0709F473C008F48AC080915F
:1049100071038E7F6DC080917103877FCE309CE5DF
:10492000D90709F465C0809171038B7FCF30DC45D6
:1049300008F45EC0809171038F7E5AC0CC3FFCE5C5
:10494000DF0709F474C040F5C4319CE5D90709F4C8
:104950008AC058F4C231FCE5DF0709F474C008F4DA
:104960006EC080917103837F43C0CA3F9CE5D90725
:1049700009F449C008F04DC0C531DC4509F095CFB8
:104980008091710382FB992790F921E0922790FB97
:1049900082F990FB83F92CC0C1158DE5D80709F485
:1049A00058C088F4809172038360CE3FECE5DE0747
:1049B00069F1809172038D7FCF3FDC4538F18091A2
:1049C00072038C7F23C0C2308DE5D80709F458C02C
:1049D00008F452C0C136DD4509F067CF90917103EC
:1049E000892F8F7E94FF806103C080917103816065
:1049F000809371035ACF809171038460F9CF8091C5
:104A000071038860F5CF8091720381608093720397
:104A10004CCF809172038260F9CF809171038064E2
:104A2000E7CF0E94A80B809171038068E1CF80914D
:104A300072038E7FEBCF809171038F7DD9CF8091F0
:104A400071038F7BD5CF0E94A80B809171038F7764
:104A5000CFCF80917203982F909591708E7F892B84
:104A600090FB81F9D3CF0E94A80B90917103892FFD
:104A700097FB87F98058BCCF81E00E94751115CF54
:104A800080E0FBCF81E01FCF84E0089550E0440F29
:104A9000551F92E1699F400D511D112494EB899F90
:104AA000400D511D1124CA01879608950F931F933D
:104AB000CF93DF930E9446258C010E948735C82F33
:104AC000D0E0DC2FCC27C80101960E9487359E01DB
:104AD000282BC901DF91CF911F910F9108950F935A
:104AE0001F93CF93DF93122F032F0E944625EC01D3
:104AF000602F0E949B35612FCE010196DF91CF91EF
:104B00001F910F910C949B35AF92BF92CF92DF9281
:104B1000EF92FF921F93CF93DF938CEAC82E80E031
:104B2000D82ED0E07601C0E014C0F5012591349173
:104B3000412F6C2F8D2F0E946F2582E0A80EB11C93
:104B40001F5F193091F782E1E80EF11CCF5FCA3088
:104B500019F0570110E0E9CFDF5F84EBC80ED11CDC
:104B6000D43001F7DF91CF911F91FF90EF90DF904C
:104B7000CF90BF90AF900895EF92FF920F931F9345
:104B8000CF93DF93EC018A017C01E60EF71ECE0184
:104B90008796CE15DF0539F4DF91CF911F910F91E4
:104BA000FF90EF900895C03D22E0D20740F40E94AC
:104BB0008735F80180830F5F1F4F2196E8CFF801FA
:104BC0001082F9CFCF92DF92EF92FF920F931F9353
:104BD000CF93DF937C016A018C01060F171FEC0154
:104BE000CE018796C017D10749F4DF91CF911F916D
:104BF0000F91FF90EF90DF90CF900895C03D22E09D
:104C0000D20740F4FE01EE19FF09EC0DFD1D608195
:104C10000E949B352196E4CF462F843038F47A30B9
:104C200028F4693018F4672F0C94562590E080E042
:104C3000089580E1089589E091E00895EF92FF9250
:104C40000F931F93CF93DF93EC018A017C01E60E53
:104C5000F71ECE0189509D4FCE15DF0539F4DF9147
:104C6000CF911F910F91FF90EF900895C93021E0EF
:104C7000D20740F40E948735F80180830F5F1F4FF1
:104C80002196E7CFF8011082F9CFCF92DF92EF9211
:104C9000FF920F931F93CF93DF937C016A018C01E6
:104CA000060F171FEC01CE0189509D4FC017D10789
:104CB00049F4DF91CF911F910F91FF90EF90DF901A
:104CC000CF900895C93021E0D20740F4FE01EE19DB
:104CD000FF09EC0DFD1D60810E949B352196E3CFFD
:104CE000CF93DF93C7EFD2E060E0CE010E949B3507
:104CF0002196C11584E0D807B9F7DF91CF910895C7
:104D0000DF92EF92FF920F931F93CF93DF9300D028
:104D100000D0CDB7DEB7F82E8FE08F1540F08FEFC3
:104D200093E00E94873507EF12E08823C1F00F90CF
:104D30000F900F900F90DF91CF911F910F91FF90E7
:104D4000EF90DF900895011584E0180781F3C80102
:104D50000E948735811101C0FA940F5F1F4FF11037
:104D6000F2CF19821A821B821C82DD24D39478012F
:104D70008FEFE81AF80AC8010E94873589831A82E2
:104D80008823A9F29FEF980F933078F48A83D98211
:104D90000E5F1F4FC7010E9487358B83882339F22E
:104DA000CE0101960E94E307E2CF8701F9CF0C9470
:104DB0006B05AF92BF92CF92DF92EF92FF920F936B
:104DC0001F93CF93DF9380912C0181110CC085E359
:104DD0008093790186E38093770180E980937A015B
:104DE00081E980937801A9E7B1E027E731E089E321
:104DF000A82E83E0B82E6BE771E041E050E00D9102
:104E0000802F82958F7090E0FC01C1A10F707A0114
:104E1000002E01C0EE0C0A94EAF7FE2DF095CF2388
:104E2000FC01C1A3C2A1CE29C2A3E90119919E012F
:104E3000E12FE295EF70F0E0F1A01F706A01012E02
:104E400001C0CC0C0A94EAF7EC2CE094EF20E1A22C
:104E5000F2A0FC28F2A2EC0188A190E002C0959596
:104E600087950A95E2F78170E0A1F0E002C0F59520
:104E7000E7951A95E2F790E0E0FD92E0892BF501C5
:104E800081935F016A177B0709F0B9CF80912C01EC
:104E900092E0811190E09093320382E0891B80932D
:104EA0003103DF91CF911F910F91FF90EF90DF9031
:104EB000CF90BF90AF9008957F928F929F92AF92C4
:104EC000BF92CF92DF92EF92FF920F931F93CF93F7
:104ED000DF93C9E3D3E089E7E82E81E0F82E07E706
:104EE00011E097E3A92E93E0B92E812C912C24E0B8
:104EF000C22ED12CE881EE0FEE0FE993D7012D9150
:104F00007D01A22FA295AF70B0E090968C9190E0B9
:104F10002F7002C0959587952A95E2F781709927A1
:104F2000D8014D918D01A42FA295AF70B0E090965D
:104F30002C9130E04F7002C0359527954A95E2F7E5
:104F4000A9014170552720FF02C042E050E0842BA8
:104F5000E82BDE011197EC9370903203780CEF7020
:104F6000F0E0E15FFD4F8081F5019081890F808342
:104F700020E0843064F0E72DF0E0ED5CFC4F8081B0
:104F80008F5F808360E0872D0E94D72621E0D501C6
:104F90008C918D3F64F4E72DF0E0ED5CFC4F808157
:104FA0008150808361E0872D0E94D72621E0F501A2
:104FB0008081082E000C990BB6010E944335D50163
:104FC0008D935D01922AB1E08B120FC0892DDF9184
:104FD000CF911F910F91FF90EF90DF90CF90BF90F6
:104FE000AF909F908F907F9008958824839482CF74
:104FF000E0913203F0E0ED5CFC4F20813181FC0157
:10500000318320830895CF92DF92EF92FF920F9326
:105010001F93CF93DF937C01D12C80E0D09131039B
:10502000DD0DF701C1917F010D2F10E00D5C1C4FCC
:10503000F8019081C91BCC2E1C14C4F09C2FC7FD15
:1050400090E0C91BC1111DC0F1E0DF120CC0882324
:1050500019F1DF91CF911F910F91FF90EF90DF90A9
:10506000CF900C948D11DD24D394D8CFCA94F8013D
:1050700080818F5F808360E08D2F0E94D72681E042
:10508000DBCFCF5FF80180818150808361E08D2F7D
:105090000E94D72681E0D6CFDF91CF911F910F914B
:1050A000FF90EF90DF90CF900895CF93DF93EB01C7
:1050B00086319C4511F50E94F50F9A81992399F04C
:1050C0008A7A91E009F490E090933B03811109C042
:1050D00089E20E94D00F0E94381080E0DF91CF91CA
:1050E000089585E3F6CF80913B03811104C089E2E6
:1050F0000E94D70FF0CF85E3FBCF81E0EFCF0F9376
:105100001F93CF93DF93C42FD22FFC01828188237A
:10511000C9F040933E030E941D2D90933D03809360
:105120003C0380E28C0F883008F050C0C77081E0EB
:1051300001C0880FCA95EAF7DF91CF911F910F91B7
:105140000C94400910913E03141335C080913C0328
:1051500090913D030E94352D883C910560F5C0E299
:10516000CD0F1D17B9F080E2810F883040F4177021
:1051700081E001C0880F1A95EAF70E944709C830FC
:1051800048F481E09D2F977001C0880F9A95EAF747
:105190000E944009802F0E943809C830B8F4D770A7
:1051A00081E001C0880FDA95EAF7DF91CF911F9176
:1051B0000F910C94470980E28C0F883038F4C77047
:1051C00081E001C0880FCA95EAF7EFCFDF91CF9158
:1051D0001F910F9108950F939C01CB01233F4CE544
:1051E000340759F1A8F4283DFCE53F0701F1293DBA
:1051F0004CE53407D1F1273D3C4591F406E221EE20
:1052000041EE67ED7CE50E947F2880E00F910895D4
:10521000253FFCE53F07E9F0B0F0263F3C45F9F0BB
:10522000FC018281882339F110923E03EFCF07E21F
:1052300025EE45EE68ED7CE5E6CF06E221EE40EE98
:1052400063EF7CE5E0CF07E225EE44EE64EF7CE51A
:10525000DACF06E221EE42EE65EF7CE5D4CF07E23D
:1052600025EE46EE66EF7CE5CECF08E221E045EE86
:1052700069ED7CE5C8CF81E0C9CF8EE14A9B02C0D1
:105280008150E1F74A9BFECF08955A9880E28A95B3
:10529000F1F75A9A0895FC013BE03A95F1F798E04E
:1052A00020E080E031E040E14A95F1F7880F4A9B29
:1052B00002C08160232742E04A95F1F7000040E1F7
:1052C0004A95F1F7915079F790E19A95F1F799B1F4
:1052D00032E03A95F1F7000040E14A95F1F792FB90
:1052E000992790F992272081920F90830895EF9249
:1052F000FF920F931F93CF93DF930F92CDB7DEB73B
:1053000019828C017C01E60EF11C0E151F0561F45B
:1053100081E09981911180E00F90DF91CF911F91F1
:105320000F91FF90EF9008950E943D29CE010196C4
:105330000E944B29F80181938F01E7CF529A5A9A24
:10534000089552985A9AEA9AE9E6F0E080818F7CB3
:10535000808308956150770B91E001C0990F6A95A1
:10536000EAF720E031E0911108C0222391F05A9A27
:1053700080E28A95F1F75A980895492F482339F029
:105380005A9A232740E24A95F1F79695ECCF5A981E
:10539000F9CF5A98EDCFFF920F931F93CF93DF93DE
:1053A000EC018C01060F111DC017D10731F4DF91FC
:1053B000CF911F910F91FF900895F9900E94452978
:1053C00068E08F2D0E94AA29EFCF1F920F920FB68F
:1053D0000F921124EF92FF920F931F932F933F93FD
:1053E0004F935F936F937F938F939F93AF93BF93ED
:1053F000EF93FF93CF93DF930F92CDB7DEB7198270
:105400000E943D29CE0101960E944B29A82FA69506
:10541000A695A695282F229525709A2F9570290F6D
:10542000922F937026952695920F982797708981D1
:10543000982B09F075C0A73008F072C080E18A95FA
:10544000F1F75A9A529AB2E0BA95F1F700C05A9819
:10545000EA2EF12CEAE0AE9FD0011124A35DBE4FED
:105460001896ED91FC9119973097B1F06091FD017C
:105470007091FE0116962D913C911797260F371FBC
:1054800013968D919C911497680F791F15964C91E6
:10549000159712968C9109958AE08E9DF0018F9D4B
:1054A000F00D1124E35DFE4F6581662351F02091DC
:1054B000FD013091FE0186819781820F931F0E942A
:1054C000CB290E944529F0E1FA95F1F75A985298B4
:1054D0005A9A80E18A95F1F78AE08E9D80018F9D2E
:1054E000100D1124035D1E4FD80112966C91129776
:1054F000662371F12091FD013091FE0113968D918B
:105500009C91820F931F0E947729D801ED91FC9105
:10551000882311F088E001C082E080830E943D2949
:105520000F90DF91CF91FF91EF91BF91AF919F913C
:105530008F917F916F915F914F913F912F911F912B
:105540000F91FF90EF900F900FBE0F901F90189546
:10555000ED91FC91DFCF0F931F93CF93DF93EC017D
:1055600007970CF0A9C08AE08C9FF0018D9FF00D89
:105570001124E35DFE4F80819181892B09F49CC049
:10558000F894529A5A9885E08A95F1F700008C2F8A
:10559000869585709C2F9570890F982F93708695AE
:1055A0008695890F8E0193E0000F111F9A95E1F700
:1055B000082B0E94452900C068E0802F0E94AA297C
:1055C000A0E1AA95F1F752985A9A4A9B27C087E022
:1055D00090E04A9925C08AE08C9F80018D9F100D34
:1055E0001124035D1E4FF80165816623A1F120910E
:1055F000FD013091FE0186819781820F931F0E94E9
:105600007729811128C0529A5A9AD801ED91FC91BC
:1056100082E08083789482E090E016C000C0D5CF0D
:105620000197B9F4529A5A9A8AE08C9FF0018D9FA3
:10563000F00D1124E35DFE4F0190F081E02D81E03B
:105640008083789481E090E0DF91CF911F910F915A
:10565000089500C0BECF0E943D29B0E2BA95F1F78F
:105660005A98529AE0E1EA95F1F78AE08C9FF001AE
:105670008D9FF00D1124E35DFE4F6281662351F092
:105680002091FD013091FE0183819481820F931F4F
:105690000E94CB290E9445298AE08C9FF0018D9FB2
:1056A000F00D1124E35DFE4F0190F081E02D10829A
:1056B000789490E080E0C8CF84E090E0C5CF9093EC
:1056C0002F0280932E020895909345038093440304
:1056D00008950E94D716811103C080913F03089559
:1056E000E0914403F0914503309721F00190F0815F
:1056F000E02D099480E00895E0914403F091450382
:10570000309799F020918701222359F0209171035D
:1057100027FF07C0DC012C9111962C93119726E0EE
:105720002C930280F381E02D09940895E0914403C5
:10573000F0914503309739F022E0DC012C9304808E
:10574000F581E02D0994089520914203309143039F
:105750002817390771F09093430380934203E09137
:105760004403F0914503309721F00680F781E02D46
:105770000994089520914003309141032817390777
:1057800071F09093410380934003E0914403F091C2
:105790004503309721F00084F185E02D09940895A8
:1057A000FC01329680918701882321F0809171035A
:1057B0009EE187FF96E080E0915008F408952191E2
:1057C0002223D1F38F5FF8CF662301F12091870167
:1057D0002223F1F02091710327FF1AC0462F46952E
:1057E000469546954E3190F4677021E030E002C056
:1057F000220F331F6A95E2F7840F911DFC0182810D
:1058000090E02823392381E0232B69F480E0089578
:10581000FC01329608962191261721F0E817F90726
:10582000D1F7F4CF81E008959C01FC0132969FEFFF
:1058300080E04191461751F09F3F19F4411101C09A
:10584000982F8F5F8630A9F79F3F09F40895290F9D
:10585000311D97FD3A95F90162830895FC01329656
:1058600008962191261303C0DF0111971C92E817B7
:10587000F907B9F70895E62FE695E695E695EE3136
:1058800068F4E80FF92FF11D677021E030E001C0E6
:10589000220F6A95EAF78281822B82830895E62F90
:1058A000E695E695E695EE3170F4E80FF92FF11DD7
:1058B000677021E030E001C0220F6A95EAF7209579
:1058C000828128232283089520918701222329F0B1
:1058D0002091710327FD0C943B2C0C94142C2091E7
:1058E0008701222329F02091710327FD0C944F2C6E
:1058F0000C942E2CFC01329680918701882351F064
:105900008091710387FF06C08EE1DF011D928A95A9
:10591000E9F7089586E0F9CF08950C948C2C811155
:1059200005C081E0809346030C948D2C82E0FACF71
:1059300083E0809346030C948D2C0C948F2C81E093
:10594000809346030C948D2C0C949F2C0895809189
:105950005F04843031F10E949A061092470388E177
:1059600090E020E40FB6F894A895809360000FBEF5
:105970002093600083B7817F846083BF83B7816099
:1059800083BF7894889583B78E7F83BF0FB6F894D2
:10599000A8958091600088618093600010926000FB
:1059A0000FBE089508950895CF930E94D22C0E94AF
:1059B00035160E94D32CC0E08C2F0E94E214892B54
:1059C00031F4CF5FCA30C1F780E0CF91089581E014
:1059D000FCCF0E94A80B0C940F071F921FB61F92BA
:1059E00011248F939F93AF93BF93809147038111AD
:1059F00013C08091570490915804A0915904B0911C
:105A00005A044196A11DB11D8093570490935804E8
:105A1000A0935904B0935A04BF91AF919F918F9175
:105A20001F901FBE1F90189582E084BD93E095BD26
:105A30009AEF97BD80936E0008952FB7F8948091E8
:105A4000570490915804A0915904B0915A042FBF63
:105A500008952FB7F894609157047091580480917D
:105A6000590490915A042FBF08959C014FB7F894A0
:105A70008091570490915804A0915904B0915A0410
:105A80004FBF821B930B0895CF92DF92EF92FF924C
:105A90002FB7F894C0905704D0905804E090590460
:105AA000F0905A042FBFA7019601261B370B480B15
:105AB000590BCA01B901FF90EF90DF90CF90089584
:105AC00078941F921FB61F9211248F939F93AF93C8
:105AD000BF938091570490915804A0915904B091BC
:105AE0005A040196A11DB11D809357049093580448
:105AF000A0935904B0935A04BF91AF919F918F9195
:105B00001F901FBE1F90189587E797E79093010895
:105B10008093000888E19AE00FB6F894A8958093E6
:105B200060000FBE90936000FFCF80916B030895DB
:105B300008959C0184E08093E9009FEF8091E80044
:105B4000915085FD06C085ED8A95F1F70000911111
:105B5000F5CF8091E80085FF0CC050E040E066E0A2
:105B600070E0C9010E943D308091E8008E778093FB
:105B7000E8000895CF93DF93EC018091870188239B
:105B8000B1F18091710387FF32C060E284E08093BD
:105B9000E9008FEF9091E800815095FD06C095EDEA
:105BA0009A95F1F700008111F5CF8091E80085FF0B
:105BB0001BC08091870170E050E040E0811104C07B
:105BC00050E040E068E070E0CE010E943D308091FE
:105BD000E8008E778093E80080E2FE01ABE4B3E05A
:105BE00001900D928A95E1F7DF91CF91089568E0D9
:105BF00081E0CDCF8093480370934A0360934903BB
:105C000080915F048430F9F48093E9008FEF9091E4
:105C1000E800815095FD06C095ED9A95F1F70000DA
:105C20008111F5CF8091E80085FF0DC050E040E084
:105C300063E070E088E493E00E943D308091E800EA
:105C40008E778093E8000895BC0184E00C94FA2DCF
:105C5000BC0183E00C94FA2DCF93FC01603221F556
:105C600080915F04843001F5C091E900CF702091EC
:105C7000EC00922F917020FD90E8C92B82E0809378
:105C8000E9008091E80080FF0CC050E040E060E255
:105C900070E0CF010E943D308091E8008E778093C4
:105CA000E800CF70C093E900CF91089580915E0421
:105CB000811109C00E941C320E9479328091E20059
