:100000000C94A8030C94EF030C94EF030C94DF29D9
:100010000C94EF030C94EF030C94EF030C94EF0398
:100020000C94EF030C94EF030C9490320C94643313
:100030000C94E62C0C94EF030C94EF030C94EF0358
:100040000C94EF030C94EF030C94EF030C94EF0368
:100050000C94EF030C94592D0C94EF030C94EF03C4
:100060000C94EF030C94EF030C94EF030C94EF0348
:100070000C94EF030C94EF030C94EF030C94EF0338
:100080000C94EF030C94EF030C94EF030C94EF0328
:100090000C94EF030C94EF030C94EF030C94EF0318
:1000A0000C94EF030C94EF030C94EF03290014005D
:1000B0001A000800150017001C00E00004001600DC
:1000C000070009000A001100E1001D001B000600E6
:1000D000190005002C00000000002C002C002C0052
:1000E0002C002C00000000002C002C002C002C0008
:1000F0002C002A00130012000C0018001C0017002E
:10010000280033000F000E000D000B000500340026
:10011000380037003600100011002C0000000000ED
:100120002C002C002C002C002C00000000002C00C7
:100130002C002C002C002C0000000000000000000F
:1001400000000000000000000000000000000000AF
:10015000000000000000000000000000000000009F
:10016000000000000000000000000000000000008F
:10017000000000000000000000000000000000007F
:10018000000000000000000000000000000000006F
:10019000000000000000000000000000000000005F
:1001A000000000000000000000000000000000004F
:1001B000000000000000000000000000000000003F
:1001C000000000000000000000000000000000002F
:1001D000000000000000000000000000000000001F
:1001E000000000000000000000000000000000000F
:1001F00000000000000000000000000000000000FF
:1002000000000000000000000000000000000000EE
:1002100000000000000000000000000000000000DE
:1002200000000000000000000000000000000000CE
:1002300000000000000000000000000000000000BE
:1002400000000000000000000000000000000000AE
:10025000000000000000000000000000000000009E
:10026000000000000000000000000000000000008E
:10027000000000000000000000000000000000007E
:10028000000000000000000000000000000000006E
:10029000000000000000000000000000000000005E
:1002A000000000000000000000000000000000004E
:1002B000000000000000000000000000000000003E
:1002C000000000000000000000000000000000002E
:1002D000000000000000000000000000000000001E
:1002E000000000002A2B2800000000000000000091
:1002F0000000000000000029000000002C1E342037
:10030000212224342627252E362D3738271E1F205C
:100310002122232425263333362E37381F040506A1
:100320000708090A0B0C0D0E0F10111213141516E5
:100330001718191A1B1C1D2F3130232D35040506E3
:100340000708090A0B0C0D0E0F10111213141516C5
:100350001718191A1B1C1D2F3130354C00000000D6
:10036000000000000000000000000000000000008D
:10037000000000000000000000000000000000007D
:100380007E0F00D4FFFFFFC70000007800047F3F0E
:100390001F643214643214783C1E1E140A05222392
:1003A000252628292A2C2D2F3032333536383A3B52
:1003B0003D3E4042434547494A4C4E5051535557A4
:1003C000595A5C5E6062646668696B6D6F717375C3
:1003D00077797B7D7F81838587898A8C8E909294C3
:1003E00096989A9C9E9FA1A3A5A7A8AAACAEAFB1D0
:1003F000B3B4B6B8B9BBBCBEBFC1C2C3C5C6C7C91A
:10040000CACBCCCDCED0D1D2D2D3D4D5D6D7D7D8D3
:10041000D9D9DADADBDBDBDCDCDCDCDCDDDDDDDD25
:10042000DCDCDCDCDCDBDBDBDADAD9D9D8D7D7D62D
:10043000D5D4D3D2D2D1D0CECDCCCBCAC9C7C6C5E4
:10044000C3C2C1BFBEBCBBB9B8B6B4B3B1AFAEAC2A
:10045000AAA8A7A5A3A19F9E9C9A98969492908ED5
:100460008C8A89878583817F7D7B79777573716FAE
:100470006D6B6968666462605E5C5A59575553518A
:10048000504E4C4A4947454342403E3D3B3A383640
:10049000353332302F2D2C2A292826252322FFAA56
:1004A0007F55400001010101010101010102020229
:1004B0000202020202020303030303030303040410
:1004C00004040404040505050505060606060607DA
:1004D0000707070708080808090909090A0A0A0B93
:1004E0000B0B0C0C0C0D0D0D0E0E0E0F0F0F101034
:1004F00011111112121313141415151616171718BB
:100500001819191A1A1B1B1C1D1D1E1E1F20202125
:100510002222232424252626272829292A2B2C2D6C
:100520002D2E2F30313232333435363738393A3B8D
:100530003C3D3E3F404142434445464748494A4C82
:100540004D4E4F50515354555658595A5B5D5E5F4E
:10055000616264656668696B6C6D6F7072737577E4
:10056000787A7B7D7E8082838587888A8C8E8F9146
:10057000939596989A9C9EA0A2A3A5A7A9ABADAF70
:10058000B1B3B5B7BABCBEC0C2C4C6C9CBCDCFD15A
:10059000D4D6D8DBDDDFE2E4E7E9EBEEF0F3F5F803
:1005A000FAFDFF0E037200610070006800720061C6
:1005B00000000012036D006F0063006F002D006BE0
:1005C000006200640000000403090409025B0003E8
:1005D0000100A0FA09040000010301010009211132
:1005E0000100012240000705810308000A090401F7
:1005F000000203000000092111010001222200076E
:1006000005820320000107050303200001090402FD
:1006100000010300000009211101000122B60007BA
:1006200005840320000A1201000200000008D8041B
:10063000F0E80100010200010660FF0961A1010963
:1006400062150026FF0095207508810209631500D8
:1006500026FF00952075089102C005010902A1013D
:1006600085020901A10005091901290815002501C4
:100670009508750181020501093009311581257F31
:1006800095027508810609381581257F9501750841
:100690008106050C0A38021581257F9501750881B0
:1006A00006C0C005010980A101850319012AB70010
:1006B000150126B700950175108100C0050C0901D0
:1006C000A101850419012AA002150126A0029501A5
:1006D00075108100C005010906A1018506050719ED
:1006E000E029E71500250195087501810205071924
:1006F0000029EF1500250195F07501810205081903
:10070000012905950575019102950175039101C0B7
:1007100005010906A101050719E029E715002501D2
:100720009508750181029501750881010507190079
:1007300029FF150026FF0095067508810005081998
:10074000012905950575019102950175039101C077
:1007500011241FBECFEFDAE0DEBFCDBF04B603FE2B
:1007600027C08091310490913204A0913304B0915C
:1007700034048730904BA740B04BD1F41092310431
:1007800010923204109233041092340414BE84B7D1
:10079000877F84BF0FB6F894A89580916000886128
:1007A00080936000109260000FBEE0E0F8E30995CE
:1007B00012E0A0E0B1E0ECEDFCE602C005900D9285
:1007C000A632B107D9F724E0A6E2B2E001C01D923B
:1007D000A133B207E1F70E9473170C9435360C94DD
:1007E000000081E0089581E008950C94F3030895DA
:1007F0000C94F7031F93CF93DF9300D000D00F9298
:10080000CDB7DEB749835A836B8330912802898143
:100810009A8131111DC06623B9F02223A9F00E94EC
:100820007E0A182F682F89819A810E942A0A69817D
:100830007A81812F0F900F900F900F900F90DF9182
:10084000CF911F910C9404260E94560A182FEFCFC7
:100850000E947E0A69817A81EDCFFC01262F4081BA
:1008600051816281738184810C94FA0381E008953F
:10087000CF93DF93EC0160E00E942D04BE01DF9175
:10088000CF910C94F803E1E0F0E0DF0102C0AA0F81
:10089000BB1F6A95E2F7BD01DF0102C0AA0FBB1FB3
:1008A0004A95E2F76A2B01C0EE0F2A95EAF7962FD8
:1008B0009823961302C08E2B0895E0958E230895F9
:1008C000242F462F682F809144020E9443040C94E9
:1008D000E7090E9486120E94C4050C94A1120C9490
:1008E000A41280E00C94C505089508950E947F0924
:1008F0000E9475042FEF84E39CE0215080409040DB
:10090000E1F700C000000C947D2D0F931F93CF934F
:10091000DF938C0161E00E942D04EC01B8010E947C
:10092000A922882309F441C0B801CE010E94F50331
:100930008823D9F1B801CE010E94E5288823A9F1C6
:10094000B801CE010E941224882379F1B801CE01AA
:100950000E944F28882349F1B801CE010E945E21F0
:10096000882319F1F8018281882361F0CA35FDE5F9
:10097000DF0721F170F4C115ECE5DE07A1F0CE3DF3
:10098000DC45C9F0C801DF91CF911F910F910C9404
:10099000F103CB358DE5D807A1F0CC35DD4591F7D6
:1009A0000E94910EEFCF0E94760480E0DF91CF91FC
:1009B0001F910F9108950E944A0FF7CF0E949A0E3F
:1009C000E1CF0E949D0EDECF0C9474040E94632B35
:1009D0000E94C5050C94E404DF92EF92FF920F93FE
:1009E0001F93CF93DF93E82FF0E0E452FD4FD490B4
:1009F000282F26952695269530E0F901E458FC4FDE
:100A00000491877010E0082E02C0159507950A948E
:100A1000E2F701701127F901E459FC4FE490F12C41
:100A2000082E02C0F594E7940A94E2F791E0E922D7
:100A3000FF24F901E45AFC4FC491D0E002C0D595DF
:100A4000C7958A95E2F7C170DD270115110519F0E8
:100A500081EE0E941006E114F10419F086EE0E9466
:100A600010068D2D0E940F07EF2819F086EE0E94C8
:100A7000A206012B19F081EE0E94A206CD2B51F0A7
:100A80008CE2DF91CF911F910F91FF90EF90DF905B
:100A90000C940F07DF91CF911F910F91FF90EF9072
:100AA000DF900895EF92FF920F931F93CF93DF9300
:100AB000EC01162F0AE08881882309F454C08130A4
:100AC00009F04EC08981813099F47E0122E0E20E66
:100AD000F11C8A810E940F07E7012196812F815026
:100AE00050F3EFE9FFE03197F1F700C00000F7CFD6
:100AF000823041F47E0182E0E80EF11C8A810E947E
:100B00001006EACF833041F47E01E2E0EE0EF11CE4
:100B10008A810E94A206E0CF843011F02196DDCFB9
:100B20002A81229690E080E0AE014F5F5F4F205314
:100B3000330B2A30310548F0019778F2EFE9FFE0F6
:100B40003197F1F700C00000F7CF089FB001099F6F
:100B5000700D1124C901860F971F2981EA01E4CF86
:100B60000E94EC04BACFDF91CF911F910F91FF90BB
:100B7000EF90089560E00C94520508950C94BD0523
:100B800081E008950C94C0050895CF93C82F0E946A
:100B9000BE058C2FCF910C94C205CF93DF93CDB7B8
:100BA000DEB72B970FB6F894DEBF0FBECDBF4F83D5
:100BB000588769877A878B8761110E94EC0D1E82A6
:100BC0001D8285E0FE013796DE01119601900D929F
:100BD0008A95E1F78C819D81892B89F449815A811D
:100BE0006B817C818D819E810E940D0D2B960FB6AD
:100BF000F894DEBF0FBECDBFDF91CF9108958981FC
:100C00009A8189238F3F51F3CE0101960E943604C9
:100C10008111E4CFEBCFFC01808191810C94AB0A70
:100C2000CF93C82F882309F48BC08238C1F40E9467
:100C3000632B81FD85C089E30E94A70D0E940F0EE2
:100C40002FEF81EE94E0215080409040E1F700C00A
:100C5000000089E30E94AE0DCF910C940F0E8338F3
:100C6000A1F40E94632B80FD6BC083E50E94A70D59
:100C70000E940F0E2FEF81EE94E0215080409040B3
:100C8000E1F700C0000083E5E5CF8438A1F40E94BD
:100C9000632B82FD55C087E40E94A70D0E940F0EB2
:100CA0002FEF81EE94E0215080409040E1F700C0AA
:100CB000000087E4CFCF8CEF8C0F813A90F46C2F3B
:100CC00080910201909103010E94DE2B882329F07C
:100CD0008C2F0E94AE0D0E940F0E8C2F0E94A70D2C
:100CE000BBCF80E28C0F883048F4C77081E001C030
:100CF000880FCA95EAF70E94CF0DAECFEBE5EC0F57
:100D0000E33040F4F0E0E556FE4F808190E0CF9173
:100D10000C949E2BE8E5EC0FE73150F4F0E0EE0F79
:100D2000FF1FE359FE4F80819181CF910C94B42B2A
:100D3000C03F30F08C2F0E940318CF910C94D6182E
:100D4000CF910895882309F452C0823871F40E942B
:100D5000632B81FF4CC089E30E94A70D0E940F0EF8
:100D600089E30E94AE0D0C940F0E833859F40E9453
:100D7000632B80FF3CC083E50E94A70D0E940F0EED
:100D800083E5EFCF843859F40E94632B82FF2FC094
:100D900087E40E94A70D0E940F0E87E4E2CF9CEF2C
:100DA000980F913AF0F290E2980F983050F48770D3
:100DB00091E001C0990F8A95EAF7892F0E94D50D1D
:100DC000D2CF9BE5980F933020F490E080E00C9414
:100DD0009E2B98E5980F973120F490E080E00C94DA
:100DE000B42B803F20F00E945D180C94D618089513
:100DF0001F93CF93DF93182FEB010E9410062097CB
:100E000031F4812FDF91CF911F910C94A2068FE9CD
:100E10009FE00197F1F700C000002197F0CF70E04C
:100E200060E0893311F460E570E00C94F8068823E3
:100E300021F00E94CF0D0C940F0E0895882321F00D
:100E40000E94D50D0C940F0E0895BF92CF92DF92A1
:100E5000EF92FF920F931F93CF93DF936C01D62FE6
:100E6000C72FFC011281F580F2949FE0F9220E94C5
:100E7000C50DE82E8823B9F0E12E1123A1F08C2FA7
:100E8000807F803421F080E28D0F8830D0F0809117
:100E90004F0382FD16C082E00E94600E0E94C50DC5
:100EA00091E0E82EE926BC2EB2948FE0B822FBE058
:100EB000FB1508F468C0EB2DF0E0E95CF94C0C94EC
:100EC0008035E12CF0CF0C2F0F70C07F11F0029510
:100ED000007F112399F0002359F080E28D0F8830B4
:100EE00010F0D11107C0802F0E94CF0D0E940F0E6D
:100EF0008D2F41C0802F0E94DF0DF8CF8D2F0E94D3
:100F0000A206002309F43FC080E28D0F883010F064
:100F1000D11104C0802F0E94D50D03C0802F0E94E4
:100F2000E50D0E940F0E2FC00C2F0F70C07FC03236
:100F300011F00295007FDD2381F0D13009F469C002
:100F4000112309F473C0FF2009F469C0F6018581FB
:100F500080FFCECF8F70858362C080914F0382FF68
:100F600038C0112359F0002329F0802F0E94CF0DA3
:100F70000E940F0E80E00E94100605C080E00E94D3
:100F8000A2060111C7CFEB2DE850FF0B349720F4D8
:100F90000E94632B0E94C505EE2009F44DC10E94FA
:100FA000C10D80FD49C1F60112820E94BB0D0E9455
:100FB000F809C6010E943D090E94BB0DDF91CF9147
:100FC0001F910F91FF90EF90DF90CF90BF900C9406
:100FD000030A112389F0F11006C00E94F20D802B44
:100FE0000E941707D0CF21E0F212F7CF0E94F20D36
:100FF000802B0E94F80DC7CFF11006C00E94050E8D
:10100000802F0E941E07BFCF31E0F31609F4BBCF3B
:10101000F5CF112331F085E08F1508F4B4CF802F80
:10102000DFCF94E09F1508F4AECFEACFFF2041F365
:10103000D93349F4FFEF27EE33E0F1502040304040
:10104000E1F700C000008D2F0E94A2069CCF8C2FDC
:1010500086958695837069F0813009F094CF8D2F45
:101060009C2F9370111102C090E080E00E94B42B7D
:101070008ACF8D2F9C2F9370111102C090E080E0D9
:101080000E949E2B80CF8D2F112329F00E940318E0
:101090000E94D61878CF0E945D18FACF8C2F8370EB
:1010A00079F5111170CF4D2F429546954770440F39
:1010B000440F8D2F8F70042E01C0880F0A94EAF719
:1010C0002D2F2071D4FF07C02FE030E001C0220F88
:1010D0004A95EAF72095C695C695C370822BC23013
:1010E00049F058F4C13019F00E94D9094CCF0E9440
:1010F000D40949CF0E94DE0946CF0E94D20943CFCE
:101100008695112311F08C2F8170882309F43BCF31
:101110004D2F429546954770440F440F8D2F8F7089
:10112000042E01C0880F0A94EAF72D2F2071D4FFF6
:1011300007C02FE030E001C0220F4A95EAF7209562
:10114000C695C695C370822BC23049F058F4C130A1
:1011500019F00E941F0A17CF0E941A0A14CF0E948A
:10116000240A11CF0E94E7090ECFCF70112329F076
:101170008C2F0E94F8098D2F33CF8D2F0E941E07D0
:101180008C2F0E94030AFFCED23F51F160F4D03F72
:10119000B9F0D13F81F0112309F449C0F110A8CE74
:1011A0008C2F8F7121C0D33F11F1D43FA1F78091D3
:1011B0004F0382FF26C08C2F8F71112311F314C0AF
:1011C000112349F084E08F1508F4DDCE8C2F8F7148
:1011D0000E940F0AD8CE95E09F1508F4D4CEF6CF22
:1011E0008C2F8F711111CDCF0E94F809CCCE112315
:1011F00029F08C2F8F710E94F009C5CE0E94ED0955
:10120000C2CE112349F0CF718C2F0E94F80963E000
:101210008C2F0E94450EB7CE81E00E94600EE1E067
:10122000EF1508F0B0CE82E00E94600EACCEF11057
:10123000FFCE8C2F8F71A5CFDF91CF911F910F9192
:10124000FF90EF90DF90CF90BF9008950F931F9382
:10125000CF93DF93EC01688179818A810E94B50A7E
:101260008C010E94290A0E94D109B801CE01DF91A8
:10127000CF911F910F910C942507CF93DF93EC0131
:101280008B819C81892B29F08881998189238F3FCB
:1012900059F4DF91CF910895CE010E942609CE0125
:1012A000DF91CF910C943804CE010E948504811106
:1012B000F3CF0E94C50D882361F38A81882349F307
:1012C00080914F0382FDE5CF82E0DF91CF910C94B6
:1012D000600E90E080E00E949E2B90E080E00E94F3
:1012E000B42B0E94EC0D0E94EF0D0E940F0E0E9485
:1012F000FD190C94D6180E94B50D0C9469090E9432
:10130000DC0D0C947B09E92FE295EF70E250EE3092
:1013100070F4F0E0ED5BF94C0C948035803F19F0EF
:1013200020F4883E20F481E00895843FE1F380E0DA
:101330000895883EC0F3813FD1F7F5CF93FB88270E
:1013400080F90895FC01808191810E94AB0A0C9480
:101350008309CF93DF9300D000D00F92CDB7DEB7D3
:101360000F900F900F900F900F90DF91CF910895F5
:10137000CF93DF9300D000D000D0CDB7DEB7269654
:101380000FB6F894DEBF0FBECDBFDF91CF910895A9
:1013900008950C94C8090E94C909809345020C94D1
:1013A000690908950C94CB0990914502892B0C94FE
:1013B000CB099091450289230C94CB099091450269
:1013C00089270C94CB090C94C8090C94E3090E945A
:1013D000E509809344020C94690980E00C94E709C4
:1013E00091E001C0990F8A95EAF7892F0C94E709DB
:1013F00021E030E001C0220F8A95EAF78091440293
:10140000822B0C94E70921E030E001C0220F8A957D
:10141000EAF720958091440282230C94E70921E0A9
:1014200030E001C0220F8A95EAF7809144028227BA
:101430000C94E70990914402892B0C94E709909150
:10144000440289230C94E7099091440289270C9463
:10145000E709089527E0929F800D1124982F977037
:1014600041E001C0440F9A95EAF7869586958695E6
:1014700093E0899FF0011124E75DFD4F90E080E04B
:1014800070E05191DF0111979B01082E02C0369543
:1014900027950A94E2F721702195252724232527F3
:1014A0002C9301968330910561F7089527E0929F70
:1014B000800D1124982F977086958695869523E048
:1014C000829FF0011124E75DFD4F50E040E080E095
:1014D000219130E0092E02C0369527950A94E2F753
:1014E00021703327042E01C0220F0A94EAF7822BC1
:1014F0004F5F5F4F4330510559F70895CF92DF9208
:10150000FF920F931F93CF93DF936C0100914402DE
:1015100080914502082BC7E0D0E010E0FC2EC80106
:101520000C2E02C0959587950A94E2F780FD0CC0B9
:101530002197A0F7F12C8F2DDF91CF911F910F9163
:10154000FF90DF90CF900895B6018C2F0E94441138
:10155000019771F3F0CFCF93DF93EC010E947E0AE5
:10156000BE01DF91CF910C9444111F93CF93DF9371
:10157000EB0190912802992331F0CB01DF91CF91BB
:101580001F910C94AB0A882379F0CB010E947E0A4C
:10159000182F682FCE010E942A0ABE01812FDF91E9
:1015A000CF911F910C944411CB010E94560A182F21
:1015B000F4CF1F93CF93DF93C091460216E0809142
:1015C00047028C1304C0DF91CF911F910895D0E0A2
:1015D0001C9FF0011D9FF00D1124E85BFD4F408121
:1015E000518162817381848195810E94B80921961D
:1015F000C770E5CF409178025091790260917A02EC
:1016000070917B0280917C0290917D020C94B809CC
:10161000FF920F931F93CF93DF9380917D02807F82
:10162000D1F480917A028823B1F080914602109122
:1016300047026091780270917902A0917B02B0918B
:101640007C02062F0723C0910001D091010196E092
:10165000F92E181306C0DF91CF911F910F91FF90C3
:10166000089590E0109711F00F3F19F401968770DC
:10167000F0CFF89E9001F99E300D1124F901E85B3E
:10168000FD4F41814713F2CF40814613EFCF428196
:101690004111ECCF438154814A1B5B0B4C175D0712
:1016A00028F780917D028F70806180937D02F9011F
:1016B000E35BFD4F80818F708061808388E792E0DB
:1016C0000E943D09DF91CF911F910F91FF900C94E3
:1016D000D90AAF92BF92CF92DF92EF92FF920F930F
:1016E0001F93CF93DF93CDB7DEB761970FB6F89412
:1016F000DEBF0FBECDBF8C0185E0F801DE011D9677
:1017000001900D928A95E1F7F801E28088E7C82EF2
:1017100082E0D82E60917B0270917C026115710588
:1017200009F45FC19091780220917902892F822378
:101730008F3F09F456C140815181A380B480F0905D
:101740007A02F501E61BF70BBF01E0910001F09171
:101750000101FF2009F4F6C080917D02382F307F0F
:101760006E177F0708F0AFC0311179C0FE2C25132A
:1017700023C0941321C0E1101FC08F70806180933B
:101780007D020E94FA0AC6010E943D0980917D02F5
:10179000F80185838F2D61960FB6F894DEBF0FBEDA
:1017A000CDBFDF91CF911F910F91FF90EF90DF9010
:1017B000CF90BF90AF900895AB2829F0842F852358
:1017C0008F3F09F027C180E0F82FF170DF2E80FFF6
:1017D0003CC0809146022091470236E0821315C03A
:1017E0004D875E878D859E850E94AB0A292F2295A5
:1017F0002F702230F0F0243018F59F70F1F0F801CE
:101800009581907FD1F4D12C1EC090E0389FF001DB
:10181000399FF00D1124E85BFD4F6181651306C00F
:101820006081641303C062816E110FC001968770DE
:10183000D5CF9F7011F0882331F3805E883018F384
:10184000C8010E943D09FD2CA5CFEE2009F4A2CFCE
:1018500080917D02816080937D02F12C9BCF2513C6
:1018600006C0941304C0F801EE2009F487C0C80133
:101870000E94A209882319F1EE2009F180917D02CE
:10188000803270F0209178023091790238872F836E
:101890001986BB86AA868C87CE0107960E943D09D1
:1018A00086E0F801A8E7B2E001900D928A95E1F791
:1018B0000E94080B0E94FA0AFF24F3946BCFC80120
:1018C0000E943D09F9CF311113C07A2DB98AA88A37
:1018D0006E2D89890E94A90988E792E00E943D093E
:1018E00086E0F60111928A95E9F70E94FA0AB5CFCF
:1018F00025130FC094130DC0E1100BC0F8018583B0
:10190000C8010E943D0986E0F60111928A95E9F727
:1019100041CFC8010E94A209882389F2EE2079F202
:1019200080917D02803208F4BBCF20917802309103
:1019300079023A8329831B82BD82AC828E83CE01D9
:101940000196ACCF6E177F0708F03EC0FE2CEE204C
:1019500009F4B5CF25132AC0941328C080917D02C5
:1019600080FD1BC0982F907FC1F0F8018583903FC8
:1019700031F0982F907F905F8F70892B8583C801FD
:101980000E943D0986E0F801A8E7B2E001900D92BF
:101990008A95E1F70E94FA0AFDCE86E0F801A8E7F1
:1019A000B2E001900D928A95E1F7F4CEC8010E9451
:1019B000A209811175CF80917D02816080937D02A3
:1019C000C8010E943D09E6CE7A2DB98AA88A6E2DFB
:1019D00089890E94A90986E0F60111928A95E9F7A2
:1019E000D9CFEE2009F46BCFC8010E94A209F82ECE
:1019F000882309F464CF86E0F801A8E7B2E00190FB
:101A00000D928A95E1F788E792E00E940B060E940A
:101A1000080BC0CF81E08E25D7CE1F93CF93DF93E5
:101A2000CDB7DEB72C970FB6F894DEBF0FBECDBF93
:101A30004F83588769877A878B879C87CE01079663
:101A40000E94690B882369F08A859B85892B39F070
:101A50004F815885842F85238F3F09F071C016E090
:101A60005FC086E0FE013796DE01119601900D926F
:101A70008A95E1F78A859B85892B89F38F819885E3
:101A800089238F3F61F32091470230E0C90101961D
:101A900087709927409146024817190671F40E94F1
:101AA0007F09109247021092460286E0E8E7F2E0D2
:101AB000DF011D928A95E9F7D2CF96E0929FD0017F
:101AC000939FB00D1124A85BBD4FFE01319601908C
:101AD0000D929A95E1F7809347020E94D90ABFCFF1
:101AE000819FC0011124885B9D4F0E94690B882350
:101AF000E9F0E09146021E9FF0011124E85BFD4FE2
:101B00004081518162817381848195810E94B809ED
:101B10008091460290E00196877099278093460253
:101B200080914602909147028913DACF2C960FB626
:101B3000F894DEBF0FBECDBFDF91CF911F91089506
:101B400069857A858B859C850E94B80988CF682F26
:101B500080910201909103010C945E2C682F80917A
:101B60000201909103010C94692C809102019091E3
:101B700003010C94742C80917E0285958595859542
:101B8000089580917E028770089590917E029770EB
:101B900081E009F480E008958091A2020895909177
:101BA000A202892B8093A202089580959091A202AF
:101BB00098239093A20208951092A2020895909102
:101BC000A102892B8093A102089580959091A10292
:101BD00098239093A10208951092A1020895109263
:101BE000A002089580917F02089508950C94F50D48
:101BF00090914F0392FD08C090917F02981721F0B9
:101C000080937F020C94F60D089580917F028823C3
:101C100029F010927F0280E00C94F60D0895E09177
:101C20000201F09103018091A2028083E091020100
:101C3000F091030180819091A102892B8083E09132
:101C40000201F091030180819091A002892B808391
:101C500090917F02992381F0E0910201F0910301BC
:101C60008081892B808380910201909103010E94E1
:101C7000CA2B81110E94050E8091020190910301EF
:101C80000C94762B08950C94420E90914F0392FD84
:101C900010C098E0899F90011124622B60937E020E
:101CA0000E94F80980917E028595859585950C9412
:101CB000430E0C94F80910927E0280E00C94430EBF
:101CC00090917E028095892380937E02282F277031
:101CD00091F4282F082E000C330B9217130659F09D
:101CE00090914F0392FD07C08595859585950E943B
:101CF000030A0C945B0E089590914F0392FB2227E8
:101D000020F9281769F080FB92F990934F03809196
:101D10004E0390914F030E94C70E82E00C94600E18
:101D2000089580914F0382FB882780F991E08927ED
:101D30000C947C0E81E00C947C0E80E00C947C0E64
:101D40006FEF7FEF90E080E00C941F3690E080E032
:101D50000E94FB35893E9E4F11F40C94522280E084
:101D6000089582E090E00C94ED3583E090E00C94CF
:101D7000ED35CF9384E090E00E94ED35C82F82E2EC
:101D800090E00E94ED35982F8C2FCF910895CF933E
:101D9000C92F682F84E090E00E9401366C2F82E208
:101DA00090E0CF910C940136AB01BC018FE090E044
:101DB0000C941336AB01BC0183E190E00C94133614
:101DC00060E070E0CB010C94DA0E60E070E0CB01D3
:101DD0000E94D40E0C94E00E69EE7EEF90E080E05D
:101DE0000E941F3660E082E090E00E94013660E0D1
:101DF00083E090E00E9401361092450260E084E0AA
:101E000090E00E94013660E082E290E00E9401369C
:101E100060E085E090E00E94013660E086E090E0BE
:101E20000E9401366FEF87E090E00E94013640E0AB
:101E300050E0BA0188E090E00E94133660E08DE047
:101E400090E00E94013640E050E0BA0188E190E065
:101E50000E94133660E087E190E00E94013640E086
:101E600050E0BA018CE190E00E94133670E060E02F
:101E700080E290E00E941F3640E050E0BA0188E125
:101E800090E00E94133680E00E946B220E94912213
:101E90000C94E50E0C94EC0E682F8EE090E00C9400
:101EA00001360E94222D6093B6027093B702809390
:101EB000B8029093B9026093B2027093B302809318
:101EC000B4029093B50208950E94222D6093B60249
:101ED0007093B7028093B8029093B9026093AE02F8
:101EE0007093AF028093B0029093B102089585B7CA
:101EF000806885BF85B7806885BF08950895089577
:101F00000C947E0F08950C94820F0E94770F8CE63C
:101F100092E10E94592B0E947F0F0C94800F0C9429
:101F20006714089508950E94910F0C94920F0E94D7
:101F30000D2D0E9422120E94A0220E944F130E9487
:101F4000FA230E9411200E94D3260C94830FAF9293
:101F5000BF92CF92DF92EF92FF920F931F93CF9396
:101F6000DF93CDB7DEB72A970FB6F894DEBF0FBE6A
:101F7000CDBF0E94DD1381110E94510F84EAA82E6B
:101F800082E0B82E10E000E0C02E802F0E94A61242
:101F9000E82EF501F1905F01F81609F455C0809123
:101FA000BA0281FD0E94AC128F2D8E25D12CFF2408
:101FB000F394982F9F2109F442C00E948F0F882329
:101FC00099F0DE82CF82EF2081E009F480E08887FB
:101FD0000E94162D8160782F9A8789874E815F81B4
:101FE00068858A850E94CD05F801EC55FD4F8081FA
:101FF000F826F0820E9486200E94562781110E94B6
:10200000640F0E94F1180E94632B9091A30289171C
:1020100091F10E94632B8093A3022A960FB6F89445
:10202000DEBF0FBECDBFDF91CF911F910F91FF900B
:10203000EF90DF90CF90BF90AF900C94C505D394F4
:10204000FF0CF7E0DF12B5CF0F5F1F4F0A3011050D
:1020500009F09ACF8FEF89838A831B820E94162D05
:102060008160782F9D838C8349815A816B818D811A
:102070000E94CD05BFCF2A960FB6F894DEBF0FBEE3
:10208000CDBFDF91CF911F910F91FF90EF90DF9027
:10209000CF90BF90AF900895CF93DF930E944811E7
:1020A000EC01811521E5920708F042C0811530E569
:1020B000930708F09DC0883E910530F5803E91055C
:1020C00008F092C0883A910588F4853A910508F0A5
:1020D00084C08130910509F487C0009709F484C059
:1020E000049708F081C0D0E0C0E07EC08F3B91052E
:1020F000D0F7C85AD0E0CC0FDD1FC256DE4F099092
:10210000D881C02DD46470C08115904250F4C1159F
:1021100081E0D80708F068C0C03FD10520F3D06542
:1021200063C0C11590E4D907F0F2DF70D06A5CC0DB
:10213000811525E5920700F5811534E5930708F030
:102140008BC0811543E5940708F073C0C11582E583
:10215000D80708F469C0CE018370992721E030E0E8
:1021600002C0220F331F8A95E2F7C695C69580E21A
:10217000C89FE001112454C0C11599E5D907A8F4FE
:10218000C11528E5D20708F06CC0C11536E5D307A4
:1021900008F0A9CF8C2F0E94DF11C82FD0E0DC2FD0
:1021A000CC27CC27DF71D0621FC0C1154AE5D40708
:1021B00008F45CC0CE0190568115904208F093CF90
:1021C0008D2F8F710E94DF1190E0982F882788272C
:1021D0009F719C012C2BE901E6CFC55AD0E0C45376
:1021E000DE4FC881D0E0D064CE01DF91CF91089559
:1021F000E4E096958795EA95E1F783702C2F269574
:102200002695237040E2249F90011124382B8C2FB7
:102210008370C1E0D0E002C0CC0FDD1F8A95E2F7E9
:10222000C22BD32BDC68E0CFDC2FCC27C16FD06A68
:10223000DBCF8370992721E030E002C0220F331FEB
:102240008A95E2F7C695C69590E2C99FE0011124F0
:10225000C22BD32BDA68C8CFD82FCC27C46FD06A53
:10226000C3CFDC2FCC27C06FD06ABECF8C2F8F702E
:102270000E94DF1134E0D695C7953A95E1F7CF700B
:102280009C2FEC01D069B0CF0E9404260C944C1016
:1022900082389105B1F1B0F48133910509F475C02C
:1022A00048F48932910509F469C08A32910509F42C
:1022B00073C008958533910509F459C08933910598
:1022C00001F10895833E9105A9F138F4803E91050E
:1022D000F9F0823E910549F10895863E9105A9F1F4
:1022E000873E9105C9F1843E910519F520914F0370
:1022F00021FF1FC080914E0384FD14C087EE90E043
:10230000089520914E032370A1F080EE90E008958F
:1023100020914E0320FD47C030914F0330FF09C08C
:1023200024FF44C090E080E004C020914E0322FDD1
:10233000F7CF089520914E0322FD3BC030914F030B
:1023400030FDE3CF24FFF5CFEDCF20914E0323FFE7
:10235000F0CF24FDE7CFD2CF20914E0323FD2CC038
:1023600030914F0331FFEECF84EE90E0089520913D
:102370004E0325FFDECF89E290E0089520914E03C1
:1023800025FFD7CF85E390E0089520914E0326FFE7
:10239000D0CF8AE290E0089520914E0326FFC9CF66
:1023A00081E390E0089589E390E0089583EE90E062
:1023B000089582EE90E0089586EE90E00895909161
:1023C0004E0392FF06C0282F28712830F9F4877F2A
:1023D000846093FF06C0282F28712831F1F4877E8E
:1023E000846120914F0320FF06C0382F38713830A8
:1023F000D9F4877F816021FF06C0282F28712831FA
:10240000D1F4877E816194FD877E0895282F247101
:102410002430F9F68B7F8860DCCF282F247124319B
:1024200001F78B7E8861DDCF382F3171313019F79C
:102430008E7F8860E0CF282F2171213121F78E7E99
:102440008861E1CF10924A0310924B0310924C0323
:1024500010924D030895CF92DF92EF92FF926B019D
:102460007C010E94671481110EC00E94222DC61AA1
:10247000D70AE80AF90AC0924A03D0924B03E092C5
:102480004C03F0924D03FF90EF90DF90CF900895B2
:102490000F931F930E946714882321F01F910F91BF
:1024A0000C94222D0E94222D00914A0310914B037F
:1024B00020914C0330914D03600F711F821F931FB9
:1024C0001F910F9108950E94671481110C94162D8D
:1024D0000E944812CB01089580E008950C94A00E4C
:1024E0000E94DD138FE39CE90197F1F700C0000023
:1024F0000E94DD1380E00E94A61280FF04C00E94AB
:102500006E120C947D2D08950C9470120E94A60EEC
:10251000811102C00E944A0F0E94B10E8093BA023C
:102520000E94B90E90934F0380934E030E94841231
:102530000E94B50E0E94D209809144020C94E509D4
:1025400008950C94A01208950C94A312E82FF0E0C3
:10255000E65AFC4F80810895089580EA8A95F1F744
:10256000089500C008950C94AD12F894E82FE295F8
:10257000EF70F0E031A1282F2F7081E090E001C0D2
:10258000880F2A95EAF7982F9095932391A392A10B
:10259000892B82A37894089508950C94CC12CF933C
:1025A000DF93C6EDD1E089918F3F11F00E94B51203
:1025B00081E0CB3DD807B9F7CFECD1E089918F3FCF
:1025C00011F00E94B51281E0C63DD807B9F7DF913E
:1025D000CF910895CF92DF92EF92FF920F931F93C6
:1025E000CF93DF93EC01D62E062F10E0C8018A525C
:1025F0009E4F7C01FC0180818F3F09F445C0F89417
:10260000E82FE295EF70F0E091A18F7021E030E0CB
:1026100001C0220F8A95EAF7892F822B81A382A11C
:102620002095282322A378940E94B112EFECF1E0C8
:1026300046ED51E031E0C12C21912F3F71F1A22FE5
:10264000A295AF70B0E090968C9190E02F7002C090
:10265000959587952A95E2F780FD1FC0832FC82A9C
:10266000330F4E175F0741F7F70180818F3F11F05D
:102670000E94B51261E0C11001C060E08D2D0E9482
:10268000B312C00FD11FC882DF91CF911F910F915C
:10269000FF90EF90DF90CF90089580E0E0CF0E9410
:1026A0008114809104018091040195E0811190E0F2
:1026B0009093650385E0891B809364030E94CF1289
:1026C0008AE0EAE5F3E0DF01982F1D929A95E9F799
:1026D000E0E5F3E0DF011D928A95E9F785E00E94CD
:1026E00030140E9469040C949614EF92FF920F9399
:1026F0001F93CF93DF9300D000D00F92CDB7DEB7FA
:102700000E946714F82E60916503882309F448C07D
:1027100085E0E82E8E010F5F1F4FF8018E2D11927C
:102720008A95E9F7862F90E0B801865A9C4F0E945F
:10273000A4148823F9F08091640390E045E050E010
:10274000B801865A9C4F0E94D73521E02093BB02E6
:10275000892BD1F4F12C0E946F048F2D0F900F90D4
:102760000F900F900F90DF91CF911F910F91FF90DD
:10277000EF9008958091BB02882361F3F8011192D4
:10278000EA94E9F71092BB02A0916403B0E0A65A64
:10279000BC4F85E0F80101900D928A95E1F7DBCFFF
:1027A00070E0665A7C4F8091640390E0865A9C4F9B
:1027B0000E9431150E94CD12D0CFEF92FF920F935D
:1027C0001F93CF93DF93CDB7DEB72A970FB6F89458
:1027D000DEBF0FBECDBF8E010F5F1F4F8AE0F80135
:1027E00011928A95E9F7F12C6F2DC8010E94EA1227
:1027F000F394F5E0FF12F8CF4AE050E0B80180E52D
:1028000093E00E94D7357C0121E0892B09F420E078
:10281000E114F10441F08AE0F801A0E5B3E0019091
:102820000D928A95E1F76091650370E0665A7C4FDE
:1028300045E080E593E00E94311481E090E0EF28CC
:1028400011F40E9475132A960FB6F894DEBF0FBEDE
:10285000CDBFDF91CF911F910F91FF90EF90089521
:102860000895FF920F931F93CF93DF93F82E092FB4
:10287000162FD72FC42F222349F081E08093BE0268
:102880000E94162D9093BD028093BC028091BE02DF
:102890008823A1F08091BC029091BD020E942E2D50
:1028A000059760F0EF2DF02FA12FBD2FCE0FDF2F5A
:1028B000D11DEC17FD0741F41092BE02DF91CF91BC
:1028C0001F910F91FF90089581918D93F2CF809188
:1028D000C102811107C00E941B35882351F081E09D
:1028E0008093C10281E09091C102913009F080E0B3
:1028F000089582E08093C1020E941635F3CF0C94B4
:1029000067140E947F1480930401809104016EE19A
:10291000882349F080E00E94A41A0E94671488234B
:1029200021F00C94DA148EE1F6CF08950E9467141A
:10293000811102C00C94DC14089581E09091C202D0
:102940009A3008F080E008950F931F93CF93DF93A0
:10295000EC018B018091C2028A30B8F4B801CE013B
:102960000E942F15C82F811122C08091C2028F3F73
:10297000B9F40E94162D9093C0028093BF028C2F51
:10298000DF91CF911F910F9108958091BF02909197
:10299000C0020E942E2D843F914000F7C0E0EFCF8F
:1029A0008F5F8093C2028A3020F7C1E0E8CF109297
:1029B000C202E5CF0C9498290C949B29EF92FF92C8
:1029C0000F931F93CF93DF937901C82F880FDD0BEF
:1029D00041155105A9F08AE08C9FF0018D9FF00D03
:1029E0001124EB5FFE4F838194818D539D4F228193
:1029F00030E04217530708F49A01A9010E94E43518
:102A0000CE010E94A52A892B11F501151105E9F0C7
:102A10008AE08C9FF0018D9FF00D1124EB5FFE4F3B
:102A2000458150E00417150708F4A8018AE08C9F3F
:102A3000F0018D9FF00D1124EB5FFE4F66817781D1
:102A40006D537D4FC7010E94E43581E001C080E0F5
:102A5000DF91CF911F910F91FF90EF9008950C940B
:102A6000D3160C94FF160F931F93CF93DF9300D0D0
:102A700000D0CDB7DEB76091E9027091EA02809193
:102A8000EB029091EC020E943D2D11E0643671053D
:102A90008105910518F10E9448126E5F7F4F8F4F9C
:102AA0009F4F69837A838B839C8310E000E030E042
:102AB00020E044E050E0BE016F5F7F4F84E00E9461
:102AC000DE14182F882351F00E94222D6093E90212
:102AD0007093EA028093EB029093EC02812F0F90A7
:102AE0000F900F900F90DF91CF911F910F9108954C
:102AF0007F928F929F92AF92BF92CF92DF92EF928E
:102B0000FF920F931F93CF93DF930F92CDB7DEB752
:102B1000762E4A015901680101E010E09E012F5F05
:102B20003F4F50E040E070E060E00E94DE14182F5C
:102B3000882309F43EC0F401608171818281938110
:102B40000E943D2D643671058105910558F187017C
:102B5000950150E040E070E060E0872D0E94DE14B7
:102B6000B82EB701C6010E94FB2311E0998198138A
:102B700010E01B2139F00E94222DF4016083718343
:102B800082839383812F0F90DF91CF911F910F91BB
:102B9000FF90EF90DF90CF90BF90AF909F908F907D
:102BA0007F900895B701C6010E94FB239981891384
:102BB000CECFA701B601C5010E94E435E3CFEF9265
:102BC000FF920F931F93CF93DF9300D0CDB7DEB763
:102BD0000091E0011091E101095F1F4F82E0E82EB2
:102BE000F12C9E012F5F3F4F45EE52E063E082E003
:102BF0000E947815182F882321F0CE0101960E949B
:102C0000FD27812F0F900F90DF91CF911F910F9192
:102C1000FF90EF900895CF92DF92EF92FF920F9383
:102C20001F93CF93DF9300D000D00F92CDB7DEB7C4
:102C30006B010091E0011091E1010F5F1F4F85E0F2
:102C4000E82EF12C9E012F5F3F4F41EE52E061E0F4
:102C500080E00E947815882349F095E0FE013196C6
:102C6000ACEDB2E001900D929A95E1F795E0ECEDB4
:102C7000F2E0D60101900D929A95E1F70F900F9036
:102C80000F900F900F90DF91CF911F910F91FF90B8
:102C9000EF90DF90CF9008950F931F93CF93DF9322
:102CA000CDB7DEB728970FB6F894DEBF0FBECDBF05
:102CB000CE0101960E94391F18856091ED02709136
:102CC000EE028091EF029091F0020E943D2D643659
:102CD00071058105910510F41123C1F010E000E0A9
:102CE00030E020E048E050E0BE016F5F7F4F85E0BC
:102CF0000E94DE14882369F00E94222D6093ED0269
:102D00007093EE028093EF029093F0020E94361FC0
:102D100081E028960FB6F894DEBF0FBECDBFDF91DD
:102D2000CF911F910F910895AF92BF92CF92DF92F2
:102D3000EF92FF920F931F93CF93DF937C015B0180
:102D40006A010E949D1401E010E0882311F00AE05E
:102D500010E0C1E0D0E0F894B501C701F601099593
:102D60007894811104C021960C171D075CF4DF9143
:102D7000CF911F910F91FF90EF90DF90CF90BF9078
:102D8000AF900895CC9F9001CD9F300D300D112450
:102D900090E080E045E34A95F1F700000196821744
:102DA0009307C1F7D8CF0F931F93CF93DF93EC0115
:102DB0008B014BE056E10E9494168823D1F04FED31
:102DC00055E1B801CE010E949416882391F043E3A7
:102DD00055E1B801CE010E949416882351F04CE4CD
:102DE00056E1B801CE01DF91CF911F910F910C9464
:102DF000941680E0DF91CF911F910F910895CF92AB
:102E0000DF92EF92FF920F931F93CF93DF9300D047
:102E1000CDB7DEB7F8940091E0011091E101C8014F
:102E2000019625E0FB01DC0101900D922A95E1F766
:102E300065E070E00E94FB23F80180837894F894A9
:102E4000CE0101960E94F22789819A81F80190872C
:102E5000878362E070E0CE0101960E94FB23F801B7
:102E600086837894F8946185728583859485C09073
:102E7000D802D090D902E090DA02F090DB026C1513
:102E80007D058E059F0551F06093D8027093D9029D
:102E90008093DA029093DB020E942B127894F894CC
:102EA000F8018489882339F060E0C8010D960E94FA
:102EB0005120F801148A78940F900F90DF91CF91F0
:102EC0001F910F91FF90EF90DF90CF9008950E9497
:102ED000652F0E94970F0C94712F0E94752F0E94EE
:102EE000A70F0C948F2F0E94A02C0E944C2F0E94A1
:102EF000850F0E9467170E946D170E94930FFBCFEA
:102F00008091F70280FF12C06091460185E0689FC2
:102F1000B0011124759567957595679560387105B1
:102F2000A8F561157105A1F1862F089581FF09C0EB
:102F30006091460185E0689FB00111247595679501
:102F4000EDCF6091460182FD0AC08091F602882390
:102F5000D1F09091450160914601891728F085E0F4
:102F6000689FB0011124DACF869FB001112485E05B
:102F7000869F9001879F300D1124692F70E0C90151
:102F80000E944A35CBCF65E070E0CECF8FE7089541
:102F900081E008958091F70280FF0CC060914201AA
:102FA00070E075956795759567956115710549F19F
:102FB000862F089581FF06C06091420170E07595EB
:102FC0006795F3CF6091420182FD0BC09091F502AD
:102FD0009923A1F06091410180914201961738F048
:102FE000682F70E06038710500F38FE70895899FBE
:102FF000C001112470E00E944A35F4CF61E070E016
:10300000D7CF81E00895803F31F40E9480178195E9
:103010008093FB020895813F19F40E948017F8CF36
:10302000823F31F40E94801781958093FA020895BF
:10303000833F19F40E948017F8CF893F29F40E943A
:10304000CA178093FC0208958A3F21F40E94CA1790
:103050008195F7CF8B3F31F40E94CA1781958093F9
:10306000FD0208958C3F19F40E94CA17F8CF9CE026
:10307000980F953070F4845F990B21E030E001C027
:10308000220F8A95EAF78091F902822B8093F90248
:1030900008958D3F31F48091F70281608093F702AB
:1030A00008958E3F21F48091F7028260F7CF8F3F21
:1030B000B9F78091F7028460F1CF4091FA02803F26
:1030C00059F48091FB0287FF0DC01092FB02411161
:1030D0000BC01092F60208C0813F81F48091FB0280
:1030E00018169CF3442381F08091FC029091FD021C
:1030F000892B09F05AC01092F5020895823F49F4D5
:1031000047FFF0CF1092FA028091FB028111ECCFC1
:10311000E0CF833F19F41416ACF3E4CF9091FC0296
:10312000893F29F41916F4F61092FC02DBCF8A3F8E
:1031300019F497FFD7CFF8CF9091FD028B3F29F478
:1031400097FFD0CF1092FD02CDCF8C3F19F4191606
:10315000CCF3C8CF9CE0980F953090F4845F990B26
:1031600021E030E0B90102C0660F771F8A95E2F7CF
:10317000CB0180959091F90289238093F902B2CF17
:103180008D3F31F48091F7028E7F8093F702AACFB2
:103190008E3F21F48091F7028D7FF7CF8F3F09F0AA
:1031A000A1CF8091F7028B7FF0CF08950E94162D5A
:1031B0009C019091FA028091FB02982B21F03093B0
:1031C000F4022093F3029091FC028091FD02982B6F
:1031D00021F03093F2022093F10288EF92E00C94F8
:1031E000902BEF92FF920F931F93CF93DF9300D01A
:1031F00000D000D0CDB7DEB786E0E8EFF2E0DE0128
:10320000119601900D928A95E1F7E090FA02F09004
:10321000FB020091FC021091FD021092FA02109242
:10322000FB021092FC021092FD028E2D8F2991F06C
:103230008091F3029091F4020E942E2DAC019091A6
:10324000F602992309F43FC08091470184171506BF
:1032500008F447C0802F812B91F08091F10290916A
:10326000F2020E942E2DAC019091F502992309F4EF
:1032700077C0809143018417150608F47FC08091C0
:10328000FA029091FB02892B9091FC02892B90917C
:10329000FD02892B11F00E94D61886E0FE013196BE
:1032A000A8EFB2E001900D928A95E1F726960FB64D
:1032B000F894DEBF0FBECDBFDF91CF911F910F916C
:1032C000FF90EF900895209148018AE0289F900197
:1032D00011242417350708F0BDCF9F5F9093F602A5
:1032E00002C09F3FD1F7EE2059F00E9480179FEF58
:1032F0001E140CF491E0899F802D11248093FA0212
:10330000FF2059F00E9480179FEF1F140CF491E0EA
:10331000899F802D11248093FB023091FA02332380
:1033200009F498CF2091FB02222309F493CF45EBB7
:103330003403C0011124992359F09093FA0245EB0C
:10334000240390011124332339F03093FB0282CF00
:1033500081E08093FA02F3CF81E08093FB027ACF81
:10336000209144018AE0289F9001112424173507F9
:1033700008F085CF9F5F9093F50202C09F3FD1F781
:10338000002359F00E94CA179FEF10160CF491E029
:10339000899F802D11248093FC02112359F00E94F3
:1033A000CA179FEF11160CF491E0899F802D11240C
:1033B0008093FD023091FC02332309F460CF209109
:1033C000FD02222309F45BCF45EB3403C001112435
:1033D000992359F09093FC0245EB240390011124AA
:1033E000332339F03093FD024ACF81E08093FC0211
:1033F000F3CF81E08093FD0242CF86E0E8EFF2E078
:10340000DF011D928A95E9F71092F6021092F502FB
:103410001092F7020895EF92FF920F931F93CF93AC
:10342000DF93EB01E82FD11110C0442321F0F0E02D
:10343000ED55FB4FE4916E2F7E2F8E2FDF91CF91B4
:103440001F910F91FF90EF9008950D2F10E0282FFE
:1034500030E0442329F02D553B4FF901249130E011
:10346000F6E0CF9FC0011124EFEFF0E0BF010E9412
:103470003635AB018C2F90E0880F991FA5E5A49FEE
:10348000B001A59F700D1124861B970B982F990FE3
:10349000980FBF01601B710B629FD001639FB00D3D
:1034A000729FB00D11248B2F9D9FB0011124672FA7
:1034B0007727EF01C61BD70BBE01629FE001639F18
:1034C000D00D729FD00D11247F01E91AF108E09E02
:1034D000B001E19E700DF09E700D1124672F7727CB
:1034E000E61BF70BE29F8001E39F100DF29F100D8A
:1034F0001124E12F722F4230510599F048F4411503
:10350000510569F04130510581F0EB2F8D2F07C037
:103510004430510569F080F046305105B1F76E2F07
:103520008DCFE22F7B2F812FFACFE22F7D2FF7CF88
:10353000EB2F822F712FF3CF7B2F822FED2FEFCF29
:1035400041E00C940B1A0895ECE4F1E08083618370
:1035500008950C94A01ACF93DF93762FE901682F7A
:10356000842F0E94A91A798368838A83DF91CF917F
:10357000089580916703982F9E7F29F4817082605F
:103580008093670308958A34E8F381708864F8CFE4
:1035900088E090E00C94F535CF92DF92EF92FF92A5
:1035A0006B017C010E94B91AB701A60188E090E086
:1035B000FF90EF90DF90CF900C94133660916703EB
:1035C000709168038091690390916A030C94CC1AFE
:1035D000E7E6F3E083E0808311828FEF82838383C9
:1035E0001482ABE0B3E012968C911297836012962E
:1035F0008C9360817181828193810C94CC1A80912B
:10360000670380FF02C08695089580E00895909139
:103610006B03933018F49F5F90936B03882351F0F2
:1036200060916703709168038091690390916A03C8
:103630000C94CC1A089581E00C94071B90916B03B5
:10364000992319F0915090936B03882351F0609166
:103650006703709168038091690390916A030C94E9
:10366000CC1A089581E00C941E1B80916B03089581
:1036700080936B03662351F0609167037091680338
:103680008091690390916A030C94CC1A089560E0CC
:103690000C94381B80916803089580916903089504
:1036A00080916A03089570E00C94262260914D0188
:1036B0008091670380FF0AC080914C0123E0829FC4
:1036C000C001112484599C4F0C94531B80914E01CE
:1036D00090914F0123E0829FF0011124E459FC4FA7
:1036E000891750F71182108212828F5F3396F8CFBC
:1036F0009091670390FF14C090914E0120914F016B
:1037000033E0939FF0011124E459FC4F921710F01D
:103710000C94561B8183608342839F5F3396F6CF60
:103720000895CF93DF9300D00F92CDB7DEB790917D
:10373000670390FF0AC09E012F5F3F4F0E94AB1AA4
:103740004B8169818A810E94781B0F900F900F90A6
:10375000DF91CF910895CF93DF93EC01EC81F0E0FE
:10376000E256FC4F4491E7E6F3E0628181810E94DA
:10377000911B8C818F5F8C83DF91CF910895CF93C4
:10378000DF93EC01E7E6F3E0438162818C810E94E4
:10379000911B8C818F5F8C83DF91CF9108950F9364
:1037A0001F93CF93DF9300D00F92CDB7DEB78C017C
:1037B0008091FE0281110AC09E012F5F3F4F4FEFA3
:1037C0006FEF0E94AB1A8A818093FE02F801648138
:1037D000613069F08091FE0240E0662361F040E0D4
:1037E000623011F44091FE0280E060E004C060911C
:1037F000FE0240E080E00E94781BF801848190E0A6
:10380000019663E070E00E944A3584830F900F9028
:103810000F90DF91CF911F910F910895AF92BF92BA
:10382000CF92DF92EF92FF920F931F93CF93DF938C
:1038300000D00F92CDB7DEB7182FF62E042FE22E50
:103840009091670390FF3AC0E92FE695AE2FB0E064
:10385000AE51BE4F8C9180930B039E7F9230E1F569
:103860009E012F5F3F4F812F0E94AB1A4B816981D0
:103870008A810E94781B80916803811308C080911F
:1038800069038F1104C080916A03801729F0809129
:103890000D03826080930D0310936803F092690317
:1038A00000936A03EE2051F0609167037091680302
:1038B0008091690390916A030E94CC1A0F900F9037
:1038C0000F90DF91CF911F910F91FF90EF90DF90BC
:1038D000CF90BF90AF900895823019F400916A03A1
:1038E000CACF863019F410916803C5CF8930D9F357
:1038F000893109F6E9518E2F8170D82EE695F0E0D6
:10390000E256FB4FA590B490C12CBB2460915001AE
:10391000C61618F00E94561BAECF2C2D30E0A29E8A
:10392000C001A39E900DB29E900D112470E00E94E4
:103930003635812FD11013C0860F40914E01420FB2
:10394000532F511D9A01220F331F240F351F245965
:103950003C4F402F6F2D0E94AB1AC394D7CF861BCC
:10396000ECCFE7E6F3E09181282F4381628188E084
:10397000890F0C940E1C81E00C94B11CE7E6F3E077
:103980009181282F4381628188EF890F0C940E1C4E
:1039900081E00C94BE1CE7E6F3E0628121E1620F56
:1039A00008F46FEF282F438181810C940E1C81E075
:1039B0000C94CB1CE7E6F3E0628121E1621B08F482
:1039C00060E0282F438181810C940E1C81E00C94CF
:1039D000DA1CE7E6F3E0438121E1420F08F44FEF00
:1039E000282F628181810C940E1C81E00C94E91CCB
:1039F000E7E6F3E0438121E1421B08F440E0282F91
:103A0000628181810C940E1C81E00C94F81C20E0F2
:103A10000C940E1CEF92FF921F93CF93DF93EC0157
:103A200010E0EE24EA94F12C60915001161770F02A
:103A30000E94561B9A818C8190FF27C08F5F8C83D8
:103A4000DF91CF911F91FF90EF90089520914E014B
:103A5000422F410F5527551FCA019A01220F331FCC
:103A6000280F391F24593C4F70E0C7010E944A3586
:103A7000962F8C8140916A0360916903199F800D94
:103A800011240E94AB1A1F5FCFCF8150D8CF8F92E5
:103A90009F92AF92BF92CF92DF92EF92FF920F93DD
:103AA0001F93CF93DF93EC018A81BB24BA9480FDEE
:103AB00002C0BB24B3948C8181110AC081E0B8128A
:103AC0002AC08091500181508093000381E08C8353
:103AD000A12C4CE3942E80915001A816F8F00E947E
:103AE000561B8091000391E0B91261C081115AC048
:103AF000809150018150809300031C82DF91CF910F
:103B00001F910F91FF90EF90DF90CF90BF90AF90FB
:103B10009F908F90089510920003D8CF00914E018E
:103B2000CA2CD12C0C0D1D2D111DC801880F991FF9
:103B3000080F191F04591C4FF801118210821282BC
:103B400034E0E32EF12C812C80910003880D8D331D
:103B50001CF1692D0E942835892F082E000C990B25
:103B6000C816D90691F480916A038E9DA0018F9D9D
:103B7000500D11245595479555954795980160919D
:103B80006903809168030E94AB1A8B0CF1E0EF1A75
:103B9000F108D1F6A3949FCF87FFDFCF909150011A
:103BA000890FDBCF815080930003BC82A7CF90E0C8
:103BB00001966091500170E00E944A3580930003A5
:103BC0008C839CCFEF92FF920F931F93CF93DF9341
:103BD000EC018C81811109C081E08C831092FF027D
:103BE00092E090934B0180934A0180914E01909115
:103BF0004F0123E0829FF0011124E459FC4F891703
:103C000068F110E003E060915001161768F10E941E
:103C1000561B80914A012091FF02280F2093FF023A
:103C200090914B01980F90934B01191654F4022E6A
:103C3000000C330B409150014150550B24173507B0
:103C400034F0819580934A01813009F41C82DF9120
:103C5000CF911F910F91FF90EF90089511821082E4
:103C600012828F5F3396CBCFE12EF12C70E0C7012B
:103C70000E944A3520914E01820F482F50E020913A
:103C8000FF02022E000C330BE216F306BCF020916B
:103C90004B01022E000C330B2E153F057CF0809F4C
:103CA0009001112424593C4F40916A0360916903AB
:103CB000809168030E94AB1A1F5FA5CFFA01EE0F37
:103CC000FF1FE40FF51FE459FC4F1182108212828E
:103CD000F3CF8F929F92AF92BF92CF92DF92EF92EB
:103CE000FF920F931F93CF93DF93EC014C81042F2E
:103CF00010E09801D8010E9495359B01AC010E940B
:103D0000AB354B015C01E0E2F0E0E01BF10BA5E517
:103D1000B0E0AC019B010E94AB356B017C019F01BF
:103D2000DF010E948D359B01AC010E94B6359B01DD
:103D3000AC01280D391D4A1D5B1DC701B6010E944B
:103D40005E35F22E822F90E039E23F1560F143E0BC
:103D5000249F9001112435952795122F109500E08E
:103D600085E5E82EEF1880915001081758F10E9460
:103D7000561B9C8181E0992319F0903219F48FEF42
:103D80008093490180914901890F8C83DF91CF9104
:103D90001F910F91FF90EF90DF90CF90BF90AF9069
:103DA0009F908F90089525E530E0B901681B790B4D
:103DB0009B01220F331F260F371F37FFCCCF2F5FFA
:103DC0003F4FC9CF8E2D01FD8F2D20914E01622FC7
:103DD000600F7727771F9B01220F331F260F371F96
:103DE00024593C4F412F609169030E94AB1A0F5F29
:103DF000BACF0F931F93CF93DF93EC0110E000E055
:103E0000909150019017110609F06CF40E94561B16
:103E10008C8190E00196817099278C83DF91CF91FE
:103E20001F910F91089520914E01A801420F511D3D
:103E30009A01220F331F240F351F24593C4F4C8108
:103E4000609169038091680396959017110651F06F
:103E50004CF0442349F040916A030E94AB1A0F5F73
:103E60001F4FCECF4423B9F340E0F7CF10920D039C
:103E7000089525E0E7E6F3E0DC0101900D922A9534
:103E8000E1F720910B0330910C0340910D03FC01ED
:103E90002583368347830895EBE0F3E01182828126
:103EA000846082830895E7E6F3E080818E7F8083DB
:103EB0000E944C1FEBE0F3E08281816082832FEF50
:103EC00080E792E0215080409040E1F700C0000080
:103ED0000C94561BE7E6F3E080818E7F808360813F
:103EE0007181828193810E94CC1A0E944C1FEBE069
:103EF000F3E08281816082832FEF80E792E021509E
:103F000080409040E1F700C000000C94561B609187
:103F10006703669570E04BE050E081E591E00E9418
:103F2000CA35892B19F481E080930C030E94631237
:103F3000909305038093040380910D038460809324
:103F40000D0308959091670390FF3AC0917081111D
:103F50002DC092609093670380910D0381608093E0
:103F60000D03662351F0609167037091680380919F
:103F7000690390916A030E94CC1A60916703669569
:103F800070E04BE050E081E591E00E94CA35892B5A
:103F9000A1F00E944C1F81E08093070340916A03C7
:103FA00060916903809168030C94071D853210F0BD
:103FB0009864D0CF880F982BCDCF0E94871FEBCF6E
:103FC0000895682F90916703969581E0890F853257
:103FD00008F081E00C94A21F81E00C94E11F682F8F
:103FE0009091670396958FEF890F09F484E20C9402
:103FF000A21F81E00C94EF1F61E00C94A21FE7E682
:10400000F3E080818160808386950C94FC1F809111
:10401000670380FD0C946A1F0C94FF1F60E00C94F2
:10402000A21F80910A03811133C00E94A60E811144
:1040300004C00E944A0F0E94E81A0E94C81A6093A6
:104040006703709368038093690390936A03809178
:104050000D03836080930D036E7F61F40E94E81A64
:104060000E94C81A60936703709368038093690382
:1040700090936A030E94B91A0E944C1F80916703B3
:1040800080FF03C086950E940E2081E080930A0382
:104090000895E7E6F3E080818160808386950C9443
:1040A0000E201F93CF93DF93EC01162F8F8180FF9B
:1040B0000CC0888180FF24C0809167038160809359
:1040C0006703888186950E94A21F8F8181FF06C0A9
:1040D000212F4B816A8189810E940E1C8F8182FF72
:1040E00005C08E81882379F00E94871F8F8183FF0E
:1040F00003C081E080930703DF91CF911F91089562
:104100000E94531FE2CF0E944C1FF0CFEF92FF920C
:104110000F931F93CF93DF9380910C03882309F4AF
:1041200062C080910B03E0916703E695E81BE09382
:104130000603823009F05EC0F0E0E656FC4FE491E1
:10414000CE2FD0E00BEA1BE180910703882361F0BA
:10415000109207030E946312909305038093040357
:1041600010920903109208030E946312E091040365
:10417000F09105039C012E1B3F0B2F3F3F4798F505
:10418000209103032223B1F0109203032091010335
:1041900030910203821B930B8F3F9F4758F4205DA1
:1041A0003A48309302032093010380910D03886005
:1041B00080930D03E0900803F0900903EC0FFD1FBE
:1041C000F0930503E093040384E093E0F80109957C
:1041D0008091080390910903892B29F4EF2819F0A5
:1041E00081E080930303DF91CF911F910F91FF90A6
:1041F000EF900895863049F4F0E0E956FC4FE491E1
:10420000CE2FD0E00FEB1BE19FCF893051F4E69524
:10421000F0E0EC56FC4FE491CE2FD0E00AE01DE137
:1042200093CF8F3051F4E695F0E0EF56FC4FE491D8
:10423000CE2FD0E007E41DE187CF853149F4F0E0CF
:10424000E257FC4FE491CE2FD0E002EE1DE17CCF8F
:10425000C8E2D0E009E61EE1883109F475CF833267
:1042600039F4ECE8F3E0C591D4910FEC1BE16CCF8D
:10427000C4EFD1E009EF1EE1843209F465CFC0ED4F
:10428000D7E003EA1AE160CFFA01811101C0FB0116
:104290000994CF93DF93C82FD62F0E94FF1A8C1753
:1042A00040F00E94FF1A8D1720F4DF91CF910C94FB
:1042B000EC1F8C2FDF91CF910C94FC1F1F93CF9399
:1042C000DF93EC01FB01128111117EC00E94CC0D25
:1042D0008272CC3CFCE5DF0709F49CC008F041C0C9
:1042E000C63CECE5DE0709F481C0D8F4C33C9CE58C
:1042F000D90709F471C030F4C23CDC4509F469C047
:1043000011E062C0C43C9CE5D90709F46AC048ECDE
:104310005CE16BEB7CE1C53CDC4591F70E944421FC
:1043200053C0C93CFCE5DF0709F46AC068F4C73C28
:10433000ECE5DE0709F45FC047ED5CE166EE7CE189
:10434000C83CDC4559F3DCCFCA3C9CE5D90709F4ED
:104350005CC042E35BE16BE17BE1CB3CDC45F1F22D
:10436000CFCFC13DFCE5DF0709F465C098F4CE3C32
:104370009CE5D90709F457C008F451C0CF3CFCE5CF
:10438000DF0709F455C0C03DDC4509F0B9CF6EE048
:1043900089E04BC0C43D9CE5D90709F452C058F4EC
:1043A000C23DFCE5DF0709F449C0C33DDC4509F027
:1043B000A7CF88E135C0C53D9CE5D90709F444C0C5
:1043C000CD35DD4509F09CCF812FDF91CF911F9135
:1043D00008950E940720F8CF49EF5FE16CEE7FE17E
:1043E0009DCF4CEE5FE169EF7FE198CF4BEB5CE155
:1043F00068EC7CE193CF46EE5CE167ED7CE18ECF2B
:1044000044E05DE165EF7CE189CF45EF5CE164E08C
:104410007DE184CF4BE15BE162E37BE17FCF81E033
:104420000E94FC1FD1CF65E082E00E944921CCCFE1
:1044300068E086E0FACF64E18FE0F7CF67E185E1DD
:10444000F4CF62E289E1F1CF83E2EACF539A4BB134
:10445000477F5BB15860EFB7F8949B01220F331F81
:10446000260F371F280F391F2817390741F4EFBFD0
:104470008FE594E00197F1F700C000000895DC019A
:104480006D91CD0178E05BB9000000C067FF4BB9CA
:10449000660F000000C000C000C04BB900C07A9594
:1044A00091F7E2CF83E290E00E94ED35813289F40A
:1044B00084E290E00E94ED35823159F485E290E08B
:1044C0000E94ED3591E0823209F090E0892F8170F1
:1044D000089580E0FCCFCF93C82F6FEF811161E288
:1044E00083E290E00E9401366FEFC11162E184E245
:1044F00090E00E9401366FEFC11162E285E290E028
:10450000CF910C940136089586E290E00E94ED353B
:10451000682F70E090E080E0089586E290E00C94CF
:10452000013680E00E946B2260E070E0CB010E94C7
:104530008D220E947C250E94682681E00C946B22CB
:104540000E9483220E945222811102C00C94912267
:104550000895CF93FB01C281CC2309F19C01225124
:104560003F452031310520F582510E947826C0E078
:104570008C2FCF91089581E00E94F80943E062E01A
:1045800081E00E946004F3CF81E00E94030A43E0CF
:1045900062E081E00E946004EBCF82E0F6CF8031E0
:1045A000FFE59F0789F381319F45B9F3C1E0E0CF73
:1045B0008031EFE59E07F9F281319F45C9F682E02F
:1045C000DBCF2FEFFC0120830895CF93DF93EC0125
:1045D00088818138A9F028F4803871F0DF91CF917B
:1045E0000895823881F08338C9F70E944A1B898375
:1045F0000E944D1B8A83F2CF0E94501B8983EECF0D
:104600000E94FF1AFBCF0E94351BF8CFCF93DF9398
:10461000EC0188818138E1F028F4803869F0DF917D
:10462000CF910895823811F18338C9F70E94501B49
:10463000482F6A81898108C0D9810E944D1BC82FEB
:104640000E944A1B4D2F6C2FDF91CF910C94071DB8
:1046500089810E940E208981811104C0DF91CF9150
:104660000C94531FDF91CF910C9449208981DF91E5
:10467000CF910C94471BEF92FF920F931F93CF9310
:10468000DF93EC01062FDC01ED91CD01E150E33128
:1046900008F0ADC0F0E0EF5AF94C0C948035198267
:1046A00089E08A83602FCE01DF91CF911F910F9116
:1046B000FF90EF900C94252E8981823069F0833031
:1046C00071F08130D9F40E94222D0E9486356A83D0
:1046D0007B838C839D83E6CF0E948422F6CF7E016C
:1046E000B2E0EB0EF11C10E0812F0E94A612F70140
:1046F00081937F011F5F1A30B9F7D4CF602FCE01AD
:104700000E94E122CFCF89818230C1F76A817B810B
:104710008C819D810E9486350E948D22C3CF4B8162
:104720006A8189810E944E259827892798279D8331
:104730008C83B8CF2C813D813227232732274B81B0
:104740006A8189810E946725ADCF0E947C25AACF0E
:104750000E940623A7CF0E94E522A4CF0E94DE1A62
:10476000A1CF0E94112689839DCF0E9413269827EE
:10477000892798279A83898395CF6B8170E08981F7
:104780009A81AE014C5F5F4F9827892798270E9436
:10479000162688CF6B8170E089819A81AE014C5FCB
:1047A0005F4F9827892798270E943D267BCF0E943C
:1047B000682678CF0E943C25D6CF6B8170E0898136
:1047C0009A81AE014C5F5F4F9827892798270E94F6
:1047D000B42568CF6B8170E089819A81AE014C5F0E
:1047E0005F4F9827892798270E94DA255BCF8FEFA4
:1047F000888358CF0895FC01680F791F8FEF91E3EC
:104800006E177F0709F408952191822728E030E090
:1048100087FF06C0880F892721503109C9F7F0CFDB
:10482000880FFACFCF93DF93EC01FB0182818823BD
:1048300009F420C1C330FDE5DF07C8F5CA3F9CE598
:10484000D90730F49E0122503C452431310598F5BA
:104850000E94B90E90934F0380934E03C031FCE544
:10486000DF0709F4E0C008F061C0C8309CE5D90753
:1048700009F4CBC088F5C430FCE5DF0709F4B3C008
:10488000E8F4C2309CE5D90709F4A7C080914E0333
:104890008260C330DC4509F4A3C080914E0390913F
:1048A0004F030E94C70E0E947F0980E004C0C136FA
:1048B000EDE5DE0769F2DF91CF91089580914E0317
:1048C0008061C630FCE5DF0709F48AC008F48FC0B8
:1048D00080914E03806284C080914E038D7FCC30E6
:1048E0009CE5D90709F47CC070F480914E038C607C
:1048F000CA30FCE5DF0709F473C008F48AC0809170
:104900004E038E7F6DC080914E03877FCE309CE535
:10491000D90709F465C080914E038B7FCF30DC4509
:1049200008F45EC080914E038F7E5AC0CC3FFCE5F8
:10493000DF0709F474C040F5C4319CE5D90709F4D8
:104940008AC058F4C231FCE5DF0709F474C008F4EA
:104950006EC080914E03837F43C0CA3F9CE5D90758
:1049600009F449C008F04DC0C531DC4509F095CFC8
:1049700080914E0382FB992790F921E0922790FBCA
:1049800082F990FB83F92CC0C1158DE5D80709F495
:1049900058C088F480914F038360CE3FECE5DE077A
:1049A00069F180914F038D7FCF3FDC4538F18091D5
:1049B0004F038C7F23C0C2308DE5D80709F458C05F
:1049C00008F452C0C136DD4509F067CF90914E031F
:1049D000892F8F7E94FF806103C080914E03816098
:1049E00080934E035ACF80914E038460F9CF80911B
:1049F0004E038860F5CF80914F03816080934F0311
:104A00004CCF80914F038260F9CF80914E03806438
:104A1000E7CF0E947F0980914E038068E1CF8091AB
:104A20004F038E7FEBCF80914E038F7DD9CF809146
:104A30004E038F7BD5CF0E947F0980914E038F77E5
:104A4000CFCF80914F03982F909591708E7F892BB7
:104A500090FB81F9D3CF0E947F0990914E03892F5B
:104A600097FB87F98058BCCF81E00E944C0F15CF8F
:104A700080E0FBCF81E01FCF84E0089550E0440F39
:104A8000551F9EE0699F400D511D11249CE8899F90
:104A9000400D511D1124CA01879608950F931F934D
:104AA000CF93DF930E943E258C010E94ED35C82FE5
:104AB000D0E0DC2FCC27C80101960E94ED359E0185
:104AC000282BC901DF91CF911F910F9108950F936A
:104AD0001F93CF93DF93122F032F0E943E25EC01EB
:104AE000602F0E940136612FCE010196DF91CF9198
:104AF0001F910F910C940136AF92BF92CF92DF922B
:104B0000EF92FF921F93CF93DF938CEAC82E80E041
:104B1000D82ED0E07601C0E014C0F5012591349183
:104B2000412F6C2F8D2F0E94672582E0A80EB11CAB
:104B30001F5F173091F78EE0E80EF11CCF5FCA308F
:104B400019F0570110E0E9CFDF5F8CE8C80ED11CE7
:104B5000D43001F7DF91CF911F91FF90EF90DF905C
:104B6000CF90BF90AF900895EF92FF920F931F9355
:104B7000CF93DF93EC018A017C01E60EF71ECE0194
:104B80008796CE15DF0539F4DF91CF911F910F91F4
:104B9000FF90EF900895C03322E0D20740F40E94C6
:104BA000ED35F80180830F5F1F4F2196E8CFF801A4
:104BB0001082F9CFCF92DF92EF92FF920F931F9363
:104BC000CF93DF937C016A018C01060F171FEC0164
:104BD000CE018796C017D10749F4DF91CF911F917D
:104BE0000F91FF90EF90DF90CF900895C03322E0B7
:104BF000D20740F4FE01EE19FF09EC0DFD1D6081A6
:104C00000E9401362196E4CF462F843038F47A3062
:104C100028F4673018F4672F0C944E2590E080E05C
:104C2000089580E1089589EA91E00895EF92FF9256
:104C30000F931F93CF93DF93EC018A017C01E60E63
:104C4000F71ECE01895A9D4FCE15DF0539F4DF914D
:104C5000CF911F910F91FF90EF900895C93A21E0F5
:104C6000D20740F40E94ED35F80180830F5F1F4F9B
:104C70002196E7CFF8011082F9CFCF92DF92EF9221
:104C8000FF920F931F93CF93DF937C016A018C01F6
:104C9000060F171FEC01CE01895A9D4FC017D1078F
:104CA00049F4DF91CF911F910F91FF90EF90DF902A
:104CB000CF900895C93A21E0D20740F4FE01EE19E1
:104CC000FF09EC0DFD1D60810E9401362196E3CFA6
:104CD000CF93DF93C7E5D2E060E0CE010E940136BA
:104CE0002196C11584E0D807B9F7DF91CF910895D7
:104CF000DF92EF92FF920F931F93CF93DF9300D039
:104D000000D0CDB7DEB7F82E8FE08F1540F08FEFD3
:104D100093E00E94ED3507E512E08823C1F00F9083
:104D20000F900F900F90DF91CF911F910F91FF90F7
:104D3000EF90DF900895011584E0180781F3C80112
:104D40000E94ED35811101C0FA940F5F1F4FF110E1
:104D5000F2CF19821A821B821C82DD24D39478013F
:104D60008FEFE81AF80AC8010E94ED3589831A828C
:104D70008823A9F29FEF980F933078F48A83D98221
:104D80000E5F1F4FC7010E94ED358B83882339F2D8
:104D9000CE0101960E94BA05E2CF8701F9CF81E0EA
:104DA00008950C94CF26AF92BF92CF92DF92EF92EC
:104DB000FF920F931F93CF93DF9380910401811192
:104DC0000CC085E380935E0186E380935C0180E9FB
:104DD00080935F0181E980935D01AEE5B1E02CE550
:104DE00031E086E1A82E83E0B82E60E671E041E074
:104DF00050E00D91802F82958F7090E0FC01C1A151
:104E00000F707A01002E01C0EE0C0A94EAF7FE2D15
:104E1000F095CF23FC01C1A3C2A1CE29C2A3E90111
:104E200019919E01E12FE295EF70F0E0F1A01F7063
:104E30006A01012E01C0CC0C0A94EAF7EC2CE09434
:104E4000EF20E1A2F2A0FC28F2A2EC0188A190E000
:104E500002C0959587950A95E2F78170E0A1F0E090
:104E600002C0F595E7951A95E2F790E0E0FD92E033
:104E7000892BF50181935F016A177B0709F0B9CF90
:104E80008091040192E0811190E090930F0382E001
:104E9000891B80930E03DF91CF911F910F91FF909B
:104EA000EF90DF90CF90BF90AF9008957F928F9258
:104EB0009F92AF92BF92CF92DF92EF92FF920F93A9
:104EC0001F93CF93DF93C6E1D3E08EE5E82E81E018
:104ED000F82E0CE511E094E1A92E93E0B92E812C77
:104EE000912C22E0C22ED12CE881EE0FEE0FE99337
:104EF000D7012D917D01A22FA295AF70B0E09096C1
:104F00008C9190E02F7002C0959587952A95E2F7D5
:104F100081709927D8014D918D01A42FA295AF7072
:104F2000B0E090962C9130E04F7002C035952795F7
:104F30004A95E2F7A9014170552720FF02C042E0DF
:104F400050E0842BE82BDE011197EC9370900F0357
:104F5000780CEF70F0E0E95FFD4F8081F501908102
:104F6000890F808320E0823064F0E72DF0E0E05F7D
:104F7000FC4F80818F5F808360E0872D0E94D12667
:104F800021E0D5018C918F3F64F4E72DF0E0E05FE4
:104F9000FC4F80818150808361E0872D0E94D12663
:104FA00021E0F5018081082E000C990BB6010E94CA
:104FB0004A35D5018D935D01922AB1E08B120FC065
:104FC000892DDF91CF911F910F91FF90EF90DF908E
:104FD000CF90BF90AF909F908F907F90089588243E
:104FE000839482CFE0910F03F0E0E05FFC4F2081DB
:104FF0003181FC01318320830895CF92DF92EF92BB
:10500000FF920F931F93CF93DF937C01D12C80E00D
:10501000D0910E03DD0DF701C1917F010D2F10E03E
:10502000005F1C4FF8019081C91BCC2E1C14C4F0EA
:105030009C2FC7FD90E0C91BC1111DC0F1E0DF121C
:105040000CC0882319F1DF91CF911F910F91FF9030
:10505000EF90DF90CF900C94640FDD24D394D8CFE1
:10506000CA94F80180818F5F808360E08D2F0E9459
:10507000D12681E0DBCFCF5FF80180818150808332
:1050800061E08D2F0E94D12681E0D6CFDF91CF91B4
:105090001F910F91FF90EF90DF90CF900895CF93E5
:1050A000DF93EB0186319C4511F50E94CC0D9A816E
:1050B000992399F08A7A91E009F490E0909318038B
:1050C000811109C089E20E94A70D0E940F0E80E0A5
:1050D000DF91CF91089585E3F6CF80911803811178
:1050E00004C089E20E94AE0DF0CF85E3FBCF81E0E2
:1050F000EFCF0F931F93CF93DF93C42FD22FFC01D9
:1051000082818823C9F040931B030E94162D90933F
:105110001A038093190380E28C0F883008F050C086
:10512000C77081E001C0880FCA95EAF7DF91CF917F
:105130001F910F910C94170710911B03141335C086
:105140008091190390911A030E942E2D883C91059D
:1051500060F5C0E2CD0F1D17B9F080E2810F8830F5
:1051600040F4177081E001C0880F1A95EAF70E9499
:105170001E07C83048F481E09D2F977001C0880F4A
:105180009A95EAF70E941707802F0E940F07C830F0
:10519000B8F4D77081E001C0880FDA95EAF7DF91A3
:1051A000CF911F910F910C941E0780E28C0F8830D5
:1051B00038F4C77081E001C0880FCA95EAF7EFCFD5
:1051C000DF91CF911F910F9108950F939C01CB0117
:1051D000233F4CE5340759F1A8F4283DFCE53F078F
:1051E00001F1293D4CE53407D1F1273D3C4591F4CF
:1051F00006E221EE41EE67ED7CE50E94792880E031
:105200000F910895253FFCE53F07E9F0B0F0263FF8
:105210003C45F9F0FC018281882339F110921B038F
:10522000EFCF07E225EE45EE68ED7CE5E6CF06E23E
:1052300021EE40EE63EF7CE5E0CF07E225EE44EEA1
:1052400064EF7CE5DACF06E221EE42EE65EF7CE525
:10525000D4CF07E225EE46EE66EF7CE5CECF08E23E
:1052600021E045EE69ED7CE5C8CF81E0C9CF8EE154
:105270004A9B02C08150E1F74A9BFECF08955A989D
:1052800080E28A95F1F75A9A0895FC013BE03A953D
:10529000F1F798E020E080E031E040E14A95F1F755
:1052A000880F4A9B02C08160232742E04A95F1F7AC
:1052B000000040E14A95F1F7915079F790E19A9515
:1052C000F1F799B132E03A95F1F7000040E14A95E3
:1052D000F1F792FB992790F992272081920F908302
:1052E0000895EF92FF920F931F93CF93DF930F9246
:1052F000CDB7DEB719828C017C01E60EF11C0E15CC
:105300001F0561F481E09981911180E00F90DF9198
:10531000CF911F910F91FF90EF9008950E94372930
:10532000CE0101960E944529F80181938F01E7CFB4
:10533000529A5A9A089552985A9AEA9AE9E6F0E0EF
:1053400080818F7C808308956150770B91E001C04C
:10535000990F6A95EAF720E031E0911108C0222305
:1053600091F05A9A80E28A95F1F75A980895492F58
:10537000482339F05A9A232740E24A95F1F7969547
:10538000ECCF5A98F9CF5A98EDCFFF920F931F9315
:10539000CF93DF93EC018C01060F111DC017D107CD
:1053A00031F4DF91CF911F910F91FF900895F99003
:1053B0000E943F2968E08F2D0E94A429EFCF1F9201
:1053C0000F920FB60F921124EF92FF920F931F933B
:1053D0002F933F934F935F936F937F938F939F93FD
:1053E000AF93BF93EF93FF93CF93DF930F92CDB71C
:1053F000DEB719820E943729CE0101960E94452905
:10540000A82FA695A695A695282F229525709A2FA8
:105410009570290F922F937026952695920F9827B5
:1054200097708981982B09F075C0A73008F072C079
:1054300080E18A95F1F75A9A529AB2E0BA95F1F75B
:1054400000C05A98EA2EF12CEAE0AE9FD001112458
:10545000AB5FBE4F1896ED91FC9119973097B1F064
:105460006091E0017091E10116962D913C911797A2
:10547000260F371F13968D919C911497680F791FF3
:1054800015964C91159712968C9109958AE08E9DF0
:10549000F0018F9DF00D1124EB5FFE4F65816623B7
:1054A00051F02091E0013091E10186819781820FD6
:1054B000931F0E94C5290E943F29F0E1FA95F1F758
:1054C0005A9852985A9A80E18A95F1F78AE08E9D0F
:1054D00080018F9D100D11240B5F1E4FD801129675
:1054E0006C911297662371F12091E0013091E101F6
:1054F00013968D919C91820F931F0E947129D80160
:10550000ED91FC91882311F088E001C082E0808356
:105510000E9437290F90DF91CF91FF91EF91BF91BA
:10552000AF919F918F917F916F915F914F913F913B
:105530002F911F910F91FF90EF900F900FBE0F9042
:105540001F901895ED91FC91DFCF0F931F93CF9390
:10555000DF93EC0107970CF0A9C08AE08C9FF00163
:105560008D9FF00D1124EB5FFE4F80819181892B7F
:1055700009F49CC0F894529A5A9885E08A95F1F7FC
:1055800000008C2F869585709C2F9570890F982F21
:10559000937086958695890F8E0193E0000F111FF9
:1055A0009A95E1F7082B0E943F2900C068E0802F00
:1055B0000E94A429A0E1AA95F1F752985A9A4A9B11
:1055C00027C087E090E04A9925C08AE08C9F80013F
:1055D0008D9F100D11240B5F1E4FF801658166230E
:1055E000A1F12091E0013091E10186819781820F44
:1055F000931F0E947129811128C0529A5A9AD8018A
:10560000ED91FC9182E08083789482E090E016C076
:1056100000C0D5CF0197B9F4529A5A9A8AE08C9F6C
:10562000F0018D9FF00D1124EB5FFE4F0190F08192
:10563000E02D81E08083789481E090E0DF91CF914C
:105640001F910F91089500C0BECF0E943729B0E28C
:10565000BA95F1F75A98529AE0E1EA95F1F78AE0A3
:105660008C9FF0018D9FF00D1124EB5FFE4F628146
:10567000662351F02091E0013091E1018381948112
:10568000820F931F0E94C5290E943F298AE08C9FA8
:10569000F0018D9FF00D1124EB5FFE4F0190F08122
:1056A000E02D1082789490E080E0C8CF84E090E014
:1056B000C5CF9093270280932602089590932203EA
:1056C0008093210308950E946714811103C0809183
:1056D0001C030895E0912103F0912203309721F0FB
:1056E0000190F081E02D099480E00895E09121037C
:1056F000F0912203309799F020916C01222359F008
:1057000020914E0327FF07C0DC012C9111962C93AA
:10571000119726E02C930280F381E02D09940895DF
:10572000E0912103F0912203309739F022E0DC016F
:105730002C930480F581E02D0994089520911F0396
:10574000309120032817390771F09093200380933C
:105750001F03E0912103F0912203309721F006808E
:10576000F781E02D0994089520911D0330911E03C7
:105770002817390771F090931E0380931D03E09161
:105780002103F0912203309721F00084F185E02D70
:1057900009940895FC01329680916C01882321F0D0
:1057A00080914E039EE187FF96E080E0915008F4DF
:1057B000089521912223D1F38F5FF8CF662301F161
:1057C00020916C012223F1F020914E0327FF1AC093
:1057D000462F4695469546954E3190F4677021E0E8
:1057E00030E002C0220F331F6A95E2F7840F911D4B
:1057F000FC01828190E02823392381E0232B69F486
:1058000080E00895FC01329608962191261721F038
:10581000E817F907D1F7F4CF81E008959C01FC0166
:1058200032969FEF80E04191461751F09F3F19F467
:10583000411101C0982F8F5F8630A9F79F3F09F46F
:105840000895290F311D97FD3A95F9016283089556
:10585000FC01329608962191261303C0DF011197AF
:105860001C92E817F907B9F70895E62FE695E69533
:10587000E695EE3168F4E80FF92FF11D677021E02D
:1058800030E001C0220F6A95EAF78281822B828381
:105890000895E62FE695E695E695EE3170F4E80F6B
:1058A000F92FF11D677021E030E001C0220F6A95E9
:1058B000EAF72095828128232283089520916C01A4
:1058C000222329F020914E0327FD0C94352C0C94B3
:1058D0000E2C20916C01222329F020914E0327FDEC
:1058E0000C94492C0C94282CFC01329680916C016C
:1058F000882351F080914E0387FF06C08EE1DF01BF
:105900001D928A95E9F7089586E0F9CF08950C94E1
:10591000862C811105C081E0809323030C94872C91
:1059200082E0FACF83E0809323030C94872C0C94BD
:10593000892C81E0809323030C94872C0C94992C60
:10594000089580912804843031F10E9471041092EE
:10595000240388E190E020E40FB6F894A8958093A2
:1059600060000FBE2093600083B7817F846083BF97
:1059700083B7816083BF7894889583B78E7F83BF18
:105980000FB6F894A89580916000886180936000BC
:10599000109260000FBE089508950895CF930E945D
:1059A000CC2C0E94DD130E94CD2CC0E08C2F0E94D5
:1059B000A612811105C0CF5FCA30C1F7CF910895FB
:1059C00081E0FCCF0E947F090C94E6041F921FB671
:1059D0001F9211248F939F93AF93BF9380912403C1
:1059E000811113C08091200490912104A091220480
:1059F000B09123044196A11DB11D80932004909382
:105A00002104A0932204B0932304BF91AF919F91EE
:105A10008F911F901FBE1F90189582E084BD93E068
:105A200095BD9AEF97BD80936E0008952FB7F894B7
:105A30008091200490912104A0912204B09123042C
:105A40002FBF08952FB7F89460912004709121041E
:105A500080912204909123042FBF08959C014FB799
:105A6000F8948091200490912104A0912204B09197
:105A700023044FBF821B930B0895CF92DF92EF92C6
:105A8000FF922FB7F894C0902004D0902104E090AA
:105A90002204F09023042FBFA7019601261B370B89
:105AA000480B590BCA01B901FF90EF90DF90CF90DE
:105AB000089578941F921FB61F9211248F939F937D
:105AC000AF93BF938091200490912104A091220470
:105AD000B09123040196A11DB11D809320049093E1
